:100000000C94ED020C94C3270C940A030C940A037D
:100010000C940A030C940A030C940A030C940A032C
:100020000C940A030C940A030C94EF2C0C94C32D2B
:100030000C9442260C940A030C940A030C940A03B1
:100040000C940A030C940A030C940A030C940A03FC
:100050000C940A030C94E5260C940A030C940A03EE
:100060000C940A030C940A030C940A030C940A03DC
:100070000C940A030C940A030C940A030C940A03CC
:100080000C940A030C940A030C940A030C940A03BC
:100090000C940A030C940A030C940A030C940A03AC
:1000A0000C940A030C940A030C940A0329001E0002
:1000B0001F00200021002200210A350014001A0030
:1000C00008001500170000402B0004001600070070
:1000D00009000A00330039001D001B00060019004A
:1000E00005003400E100E000E200E30021522A00B4
:1000F0002C002D002700260025002400230052019B
:100100002E00130012000C0018001C0000423400E6
:1001100033000F000E000D000B00300031003800DE
:1001200037003600100011002F004F005200510020
:10013000500028004C002C0000003A003B003C001E
:100140003D003E003F000000BE00BD000378047883
:10015000BC000000000000000000000000000000E3
:10016000000000000000000000000000000000008F
:1001700000000000000000000000000000004B0034
:100180004500440043004200410040004E00A900E9
:10019000AA00A800BB00AE0000004A00000000005A
:1001A00000000000000000004D0000000000000002
:1001B000000000000000000000000000000000003F
:1001C000000000000000000000000000000000002F
:1001D000000000000000000000000000000000001F
:1001E000000000000000000000000000000000000F
:1001F00000000000000000000000000000000000FF
:100200000000000000000000000000005600550043
:10021000540053000000000000005700610060001F
:100220005F0000000000000085005E005D005C00D3
:1002300000000000000067005B005A005900000049
:100240000000000058006300620000000000000091
:100250001E0F0500047F3F1F643214643214783C83
:100260001E1E140A052223252628292A2C2D2F306C
:1002700032333536383A3B3D3E4042434547494AA2
:100280004C4E5051535557595A5C5E6062646668D3
:10029000696B6D6F71737577797B7D7F81838587DE
:1002A000898A8C8E90929496989A9C9E9FA1A3A5E1
:1002B000A7A8AAACAEAFB1B3B4B6B8B9BBBCBEBF09
:1002C000C1C2C3C5C6C7C9CACBCCCDCED0D1D2D28C
:1002D000D3D4D5D6D7D7D8D9D9DADADBDBDBDCDC97
:1002E000DCDCDCDDDDDDDDDCDCDCDCDCDBDBDBDA4F
:1002F000DAD9D9D8D7D7D6D5D4D3D2D2D1D0CECDBA
:10030000CCCBCAC9C7C6C5C3C2C1BFBEBCBBB9B8C6
:10031000B6B4B3B1AFAEACAAA8A7A5A3A19F9E9C4B
:100320009A98969492908E8C8A89878583817F7D16
:100330007B79777573716F6D6B6968666462605EF7
:100340005C5A5957555351504E4C4A4947454342C0
:10035000403E3D3B3A3836353332302F2D2C2A295A
:100360002826252322FFAA7F554000010101010113
:10037000010101010202020202020202020303035E
:10038000030303030304040404040404050505052E
:1003900005060606060607070707070808080809EE
:1003A0000909090A0A0A0B0B0B0C0C0C0D0D0D0E9A
:1003B0000E0E0F0F0F10101111111212131314142F
:1003C000151516161717181819191A1A1B1B1C1DA4
:1003D0001D1E1E1F202021222223242425262627FD
:1003E0002829292A2B2C2D2D2E2F3031323233342F
:1003F00035363738393A3B3C3D3E3F404142434435
:1004000045464748494A4C4D4E4F50515354555616
:1004100058595A5B5D5E5F616264656668696B6CC2
:100420006D6F7072737577787A7B7D7E808283853D
:1004300087888A8C8E8F91939596989A9C9EA0A27D
:10044000A3A5A7A9ABADAFB1B3B5B7BABCBEC0C287
:10045000C4C6C9CBCDCFD1D4D6D8DBDDDFE2E4E74B
:10046000E9EBEEF0F3F5F8FAFDFF0C03520065003E
:1004700064006F00780000001403460061006C0007
:1004800062006100740065006300680000000403FE
:10049000090409023B00020100A0FA09040000015E
:1004A0000301010009211101000122440007058117
:1004B00003080001090401000103000000092111E3
:1004C00001000122B600070582032000011201008D
:1004D0000200000008444D445200010102000105E1
:1004E000010902A10185020901A1000509190129DB
:1004F00008150025019508750181020501093009DB
:10050000311581257F9502750881060938158125E9
:100510007F950175088106050C0A38021581257F33
:10052000950175088106C0C005010980A1018503F8
:1005300019012AB700150126B70095017510810031
:10054000C0050C0901A101850419012AA0021501A9
:1005500026A002950175108100C005010906A101C0
:100560008506050719E029E715002501950875019D
:1005700081020507190029EF1500250195F0750185
:10058000810205081901290595057501910295015A
:1005900075039101C005010906A101050719E029AC
:1005A000E7150025019508750181029501750881FF
:1005B000010507190029FF150026FF00950675089B
:1005C000810005081901290515002501950575010A
:1005D0009102950175039101C00011241FBECFEF58
:1005E000DAE0DEBFCDBF11E0A0E0B1E0EEE1F4E67D
:1005F00002C005900D92AE3FB107D9F723E0AEEFF0
:10060000B1E001C01D92A93EB207E1F70E94A61514
:100610000C947A310C9400008330B8F46A30A8F45A
:10062000473098F450E097E0699F400D511D112428
:10063000FA0196E4899FE00DF11D1124EE0FFF1FD2
:10064000E455FF4F85919491089581E090E00895DD
:100650000E940C03089581E008950E942B030895E1
:1006600081E008950E942B0308950E9432030895AB
:1006700008950E9438030895A6E0B0E0E2E4F3E0B4
:100680000C94263049835A839E83309105028981D8
:100690009A8131111AC03E81332399F0222389F0C7
:1006A0000E944E09182F682F89819A810E942A0979
:1006B00069817A81812F0E945C102696E3E00C9478
:1006C00042300E943C09182FF3CF0E944E096981E5
:1006D0007A81F1CFFC01262F4081518162817381A3
:1006E000848195810E943C030895CF93DF93EC01B0
:1006F00061E00E946A03BE010E942D03DF91CF9149
:100700000895CF93DF93EC0160E00E946A03BE017D
:100710000E943903DF91CF91089581E008950E94EE
:100720008D030895CF93C82F0E94FF078C2F0E943E
:100730008F032FEF84E39CE0215080409040E1F74D
:1007400000C00000CF91089581E00E9492030E94B2
:100750000927089580E00E9492030E941A270895B5
:100760000F931F93CF93DF938C0161E00E946A0384
:10077000EC01F801858181110E94E81DB801CE01CC
:100780000E943503811106C080E0DF91CF911F9157
:100790000F910895B801CE010E940C248823A1F383
:1007A000B801CE010E943620882371F3B801CE0132
:1007B0000E940C20882341F3B801CE010E94071E3D
:1007C000882311F3F8018581882361F0C330FCE7A9
:1007D000DF07E9F058F4C115ECE7DE07A9F0C130F6
:1007E000DC47B9F0C8010E943003CFCFCB358CE78E
:1007F000D807A9F0CC35ECE7DE0771F0CA35DC4745
:1008000089F70E94950DEECF0E94A403BDCF0E94F0
:100810009D0D0E94AA03B8CF0E948B0DE3CF0E94CA
:10082000990DE0CF0E941F260E94390408950E946E
:100830003D040E9424260895089581E008950895B6
:10084000CF93DF93D82F0E941D04C82F882319F05F
:100850008D2F0E941F048C2FDF91CF910895089552
:10086000CF93C82F0E941C048C2F0E942004CF918C
:10087000089580E00E94300408950E9455240E944B
:1008800030040895CF930E945524C82F8091000210
:100890008C1779F0C09300020E94AE26609301028B
:1008A0007093020280930302909304028C2F0E94A3
:1008B0003004CF910895ADE0B0E0E1E6F4E00C94AF
:1008C0002730488759876A877B878C879D87911156
:1008D0000E949B0C1F8286E0FE013896DE01119675
:1008E00001900D928A95E1F78D8181110DC02981CA
:1008F0003A814B815C816D817E818F810E94E50B05
:100900002D96E2E00C944330CE0101960E947503CF
:100910008111EDCFF5CFFC012481213021F48081BC
:1009200091810E9480090895662329F00E949721F1
:100930000E947C2208950E940322FACFCF93C82FF1
:100940008823C9F08238C9F40E94692481FD13C04C
:1009500089E30E9488250E942F0D2FEF87EE93E0F8
:10096000215080409040E1F700C0000089E30E94E0
:100970009F250E942F0DCF9108958338A1F40E94E6
:10098000692480FDF8CF83E50E9488250E942F0D01
:100990002FEF81EE94E0215080409040E1F700C0BD
:1009A000000083E5E4CF8438A1F40E94692482FD2D
:1009B000E2CF87E40E9488250E942F0D2FEF81EE61
:1009C00094E0215080409040E1F700C0000087E4AF
:1009D000CECF8CEF8C0F813A98F48C2F0E94391F68
:1009E0008111C9CF8C2F0E94FF24882329F08C2FDE
:1009F0000E949F250E942F0D8C2F0E948825B9CF21
:100A000080E28C0F883048F4C77081E001C0880F05
:100A1000CA95EAF70E947E0CACCFEBE5EC0FE33011
:100A200040F4F0E0EB57FE4F808190E00E94932469
:100A3000A2CFE8E5EC0FEB3150F4F0E0EE0FFF1F32
:100A4000E15BFE4F808191810E94B82494CF83E3C3
:100A50008C0F833108F08FCF61E08C2F0E949404BB
:100A60008ACF882309F456C0823879F40E94692419
:100A700081FF50C089E30E9488250E942F0D89E3E1
:100A80000E949F250E942F0D0895833859F40E94DB
:100A9000692480FF3FC083E50E9488250E942F0DB6
:100AA00083E5EECF843859F40E94692482FF32C076
:100AB00087E40E9488250E942F0D87E4E1CF9CEFF8
:100AC000980F913AE8F290E2980F983050F48770BE
:100AD00091E001C0990F8A95EAF7892F0E94840C52
:100AE000D1CF9BE5980F933028F490E080E00E94EE
:100AF0009324089598E5980F9B3128F490E080E0C6
:100B00000E94B824089593E3980F933118F460E09D
:100B10000E94940408951F93CF93DF93182FEB0145
:100B20000E949E04209739F4812F0E943105DF91A5
:100B3000CF911F9108958FE99FE00197F1F700C0D1
:100B400000002197EFCF70E060E0893311F460E599
:100B500070E00E948B050895882321F00E947E0C8E
:100B60000E942F0D0895882321F00E94840C0E947A
:100B70002F0D0895B0E0A0E0E0ECF5E00C942030FB
:100B80006C01D62FC72FFC011581068102950F70CD
:100B90000E94740CE82E8823F9F0E12E1123E1F075
:100BA0008C2F807F803461F080E28D0F883008F1D7
:100BB0008C2F807E803221F4D230D8F00023C9F00F
:100BC00080918B0382FF15C082E00E945F0D0E941E
:100BD000740C91E0E82EE926BC2EB2949FE0B92275
:100BE000FBE0FB15B8F1EB2DF0E0E458FE4C0C9463
:100BF000E02FE12CF1CF0C2F0F70C07F11F0029588
:100C0000007F112399F0002359F080E28D0F883086
:100C100010F0D11107C0802F0E947E0C0E942F0D72
:100C20008D2F5AC0802F0E948E0CF8CF8D2F0E94DE
:100C30003105002379F080E28D0F883010F0D1115A
:100C400004C0802F0E94840C03C0802F0E94940C4B
:100C50000E942F0DEB2DE850FF0B349720F40E94DB
:100C600055240E943004EE2089F00E94700C80FD13
:100C70000DC0F60115820E946A0C0E948808C60108
:100C80000E94C6070E946A0C0E949808CDB7DEB782
:100C9000E9E00C943C302C2F2F70F22EC07FC03234
:100CA00019F0F29480EFF822DD2341F0D130D1F138
:100CB000112309F444C00023F1F0B2CF80918B03DB
:100CC00082FD15C0112359F0FF2029F08F2D0E94BD
:100CD0007E0C0E942F0D80E00E949E04BBCF80E01E
:100CE0000E943105FF2009F4B5CF8F2DABCF112322
:100CF00069F0011104C08F2D0E94AC05ABCF01300B
:100D000009F0A8CF8F2D0E94B20CA4CF0111A2CF61
:100D10008F2D0E94B3058F2D0E94BE0C8F2D0E9437
:100D2000A20C98CF112321F0063008F093CFE3CF27
:100D3000053008F08FCF8F2D0E94B3058BCF002395
:100D4000D1F3D93349F43FEF87EE93E0315080403F
:100D50009040E1F700C000008D2F0E9431057ACF4E
:100D60008C2F86958695837069F0813009F072CF5B
:100D70008D2F9C2F9370111102C080E090E00E9493
:100D8000B82468CF8D2F9C2F9370111102C080E082
:100D900090E00E9493245ECF612F8D2F0E949404D7
:100DA00059CF8C2F8370A1F5111154CF4D2F42953F
:100DB00046954770440F440F2D2F2F7030E0042EBE
:100DC00002C0220F331F0A94E2F790E080E0D4FFC4
:100DD00009C08FE090E002C0880F991F4A95E2F7A2
:100DE00080959095C695C695C370822B932BC23083
:100DF00049F058F4C13019F00E9458082BCF0E94D6
:100E00004F0828CF0E94610825CF0E944C0822CFAE
:100E10008695112311F08C2F8170882309F41ACF45
:100E20004D2F429546954770440F440F2D2F2F703C
:100E300030E0042E02C0220F331F0A94E2F790E044
:100E400080E0D4FF09C08FE090E002C0880F991FB6
:100E50004A95E2F780959095C695C695C370822B0A
:100E6000932BC23049F058F4C13019F00E94C308E6
:100E7000F1CE0E94BA08EECE0E94CC08EBCE0E94C2
:100E80007008E8CECF70112329F08C2F0E948808BB
:100E90008D2F32CF8D2F0E94B3058C2F0E94980882
:100EA000D9CED23F41F160F4D03FB9F0D13F81F0CB
:100EB000112309F443C00111B3CE8C2F8F711FC0D1
:100EC000D33F01F1D43FA1F780918B0382FD24C071
:100ED0008C2F8F71112311F312C0112341F00530B3
:100EE00008F0B8CE8C2F8F710E94AA08B3CE0630BE
:100EF00008F0B0CEF7CF8C2F8F711111CFCF0E9499
:100F00008808A8CE112329F08C2F8F710E947C08AD
:100F1000A1CE0E9477089ECE112331F063E08C2F82
:100F20008F710E94410D96CE81E00E945F0D0230CC
:100F300008F490CE82E00E945F0D8CCE002359F021
:100F4000D93309F009CFEFEFF7EE23E0E150F0409D
:100F50002040E1F7FFCE8C2F8F71A0CF0F931F930E
:100F6000CF93DF93EC01688179818D810E948B0999
:100F70008C010E94D5080E944B08B801CE010E9446
:100F8000BA05DF91CF911F910F910895CF93DF9311
:100F9000EC018C81882399F0CE010E94B00381116D
:100FA00011C00E94740C882351F08D81882339F080
:100FB00080918B0382FF03C082E00E945F0DDF916E
:100FC000CF910895CE010E94AE07CE010E94810309
:100FD000F6CF90E080E00E94932490E080E00E94B1
:100FE000B8240E949B0C0E942F0D0E9498220E9400
:100FF0007C2208950E94B6250E94E90708950E9468
:101000008B0C0E94FA07089592959F70963091F08C
:1010100058F4925F9F70923058F4803F19F030F48A
:10102000883E30F481E008959A5FF4CF843FD1F395
:1010300080E00895883EB0F3813FD1F7F3CFFC0103
:101040002481222339F0808191810E9480090E94AD
:101050000408089580E00895A6E0B0E0E2E3F8E037
:101060000C9427302696E2E00C944330A7E0B0E0E1
:10107000ECE3F8E00C9427302796E2E00C94433040
:1010800008950E94400808950E94410890932D02FF
:1010900080932C02089508950E9444080895209199
:1010A0002C0230912D02822B932B0E94440808952C
:1010B00020912C0230912D02822393230E94440818
:1010C000089520912C0230912D02822793270E94AF
:1010D000440808950E94400808950E946A080895EF
:1010E0000E946D0890932B0280932A02089590E04D
:1010F00080E00E947008089521E030E0A90102C05C
:10110000440F551F8A95E2F7CA010E94700808959E
:1011100021E030E002C0220F331F8A95E2F7809170
:101120002A0290912B02822B932B0E947008089523
:1011300021E030E002C0220F331F8A95E2F72095AC
:10114000309580912A0290912B02822393230E9452
:101150007008089521E030E002C0220F331F8A9505
:10116000E2F780912A0290912B02822793270E9416
:101170007008089520912A0230912B02822B932B24
:101180000E947008089520912A0230912B02822338
:1011900093230E947008089520912A0230912B0217
:1011A000822793270E94700808950895262F27709C
:1011B00091E001C0990F2A95EAF723E076956795AB
:1011C0002A95E1F7660F771F660F771FFA01E60F82
:1011D000F71F50E040E0682F70E08191DF01119728
:1011E0009B01042E02C0369527950A94E2F72170E0
:1011F00021952827292328272C934F5F5F4F4430C0
:10120000510559F70895A82FA77023E09695879563
:101210002A95E1F7880F991F880F991FFB01E80FA6
:10122000F91F50E040E080E0219130E00A2E02C03A
:10123000369527950A94E2F721703327042E01C0D2
:10124000220F0A94EAF7822B4F5F5F4F443051051B
:1012500059F70895262F9A3070F4873060F4682F7C
:1012600070E087E0989F600D711D112446E052E008
:10127000822F0E94D6080895292F9A3068F487306B
:1012800058F490E066E072E037E0239F800D911DF6
:1012900011240E940309089580E00895B0E0A0E0C1
:1012A000E4E5F9E00C9420307C0100912A021091D1
:1012B0002B0280912C0290912D02082B192BCFE04C
:1012C000D0E0CC24C394D12CBC2EC6010C2E02C07D
:1012D000880F991F0A94E2F780239123892B49F400
:1012E000219790F7B12C8B2DCDB7DEB7E9E00C94A8
:1012F0003C30B7018C2F0E946810019789F3F3CF1F
:10130000CF93DF93EC010E944E09BE010E9468104A
:10131000DF91CF9108951F93CF93DF93EB019091CD
:101320000502992339F0CB010E948009DF91CF910A
:101330001F910895882369F0CB010E944E09182F50
:10134000682FCE010E942A09BE01812F0E946810D9
:10135000EDCFCB010E943C09182FF6CF1F93CF93FE
:10136000DF93C0912E0217E080912F028C1304C0EE
:10137000DF91CF911F910895D0E01C9FF0011D9F38
:10138000F00D1124E05DFD4F2081318142815381B8
:101390006481758186810E9436082196C770E4CFEA
:1013A000209168023091690240916A0250916B026B
:1013B00060916C0270916D0280916E020E943608FD
:1013C0000895CF93DF9380916E02807F09F04DC026
:1013D00080916D02882309F448C0E0912E0250915B
:1013E0002F02C0916902D091680260916A027091E7
:1013F0006B0247E05E17C9F18E2F90E0E49FF00189
:101400001124E05DFD4F2481222391F1489FF001DA
:10141000499FF00D1124DF01A05DBD4F11962C9165
:1014200011972C1325C02C912D1322C015962C91A9
:10143000159721111DC012962D913C91261B370B3B
:10144000283C3105A8F480916E028F7080618093F2
:101450006E02EA5CFD4F80818F708061808388E638
:1014600092E00E94C6070E94AE09DF91CF910895D5
:10147000FC013196E770BECF482F20912E0290914B
:101480002F0257E0291302C080E0089530E0529FF8
:10149000F001539FF00D1124E05DFD4F8181681331
:1014A00006C08081481303C085818111EECF2F5F74
:1014B0003F4F2770E7CFA4E1B0E0E1E6FAE00C94FB
:1014C0001D308C0186E0F801DE011F9601900D921F
:1014D0008A95E1F7F8018481E58098E6A92E92E0EB
:1014E000B92E90916C0291111FC08823D1F0EE208B
:1014F000A9F0C8010E941F08F82E882379F087E020
:10150000F801D50101900D928A95E1F7C5010E947D
:101510008B040E94E1090E94D0095FC0C8010E94AB
:10152000C607FF24F39459C0C080D1808280938085
:10153000F0906D0220916A0230916B02A401421B6F
:10154000530BFF2009F4F9C0483C510508F0A7C02F
:10155000882309F442C09091690280916E02282F7D
:10156000207F09F05CC09D1116C090916802C912DD
:1015700012C0E1104EC08F70806180936E020E9495
:10158000D00988E692E00E94C60780916E02F801B9
:101590008683F12C22C0E1103CC06D2D8C2D0E9461
:1015A0003C0A6D2D8C2D0E943C0AE82E8111F1CF52
:1015B000CF86D88A8F8598890E948009292F229505
:1015C0002F70243078F49F702230A8F09923B9F05E
:1015D000F8019681907F99F4FE2C8F2D6496ECE0B3
:1015E0000C9439302A5F2F70223068F0C8010E94B5
:1015F000C607EF2CF1CF992311F0882369F3805EA1
:10160000883050F3F3CF803F38F3815F833070F739
:10161000E3CF80916E02816080936E02BACF9D11FC
:1016200013C090916802C9120FC0E1100DC08683EB
:10163000C8010E94C60787E0F801A8E6B2E0019061
:101640000D928A95E1F767CFC8010E941F08882391
:1016500009F464CFEE2009F461CF80916E028032EC
:1016600088F02091680230916902398728879B862B
:101670008A8690916C029C871D868E87CE01089683
:101680000E94C60787E0F801A8E6B2E001900D923B
:101690008A95E1F70E94E1090E94D00942CF90911A
:1016A0006E02292F207FA1F4682D9A8A898AA601CB
:1016B0007A899E2D0E942C0888E692E00E94C60737
:1016C00087E0F50111928A95E9F70E94D00961CF70
:1016D000882309F482CF809169028D1110C0809116
:1016E0006802C8120CC0E1100AC09683C8010E94AB
:1016F000C60787E0F50111928A95E9F76ECFC80118
:101700000E941F08882309F409CFEE2009F406CFB0
:1017100080916E02803208F4B5CF2091680230913A
:1017200069023A8329839C828B8290916C029D830B
:101730001E828F83CE010196A3CF483C5105B8F598
:10174000882309F4EECEFE2CEE2009F4E7CE80913A
:1017500069028D111EC080916802C8121AC0809162
:101760006E0280FD0DC0982F907F51F08683903FD0
:1017700009F45ECF982F907F905F8F70892B57CFA1
:1017800087E0F801A8E6B2E001900D928A95E1F7B2
:1017900024CFC8010E941F08811174CF80916E026E
:1017A000816080936E02C8010E94C60716CF682D23
:1017B0009A8A898AA6017A899E2D0E942C0887E040
:1017C000F50111928A95E9F7A6CEAEE0B0E0EBEE16
:1017D000FBE00C942630288739874A875B876C8723
:1017E0007D878E87CE0108960E945B0A8823B1F020
:1017F0006C85662341F0288539854A855B857D8522
:101800008E850E94360817E080912E0290912F025B
:1018100089133DC02E96E3E00C94423087E0FE0130
:101820003896DE01119601900D928A95E1F78C852C
:10183000882349F320912F0230E0C9010196877077
:10184000992740912E024817190699F097E0929F28
:10185000D001939FB00D1124A05DBD4FFE013196C4
:1018600001900D929A95E1F780932F020E94AE09A4
:10187000CACF0E94FF0710922F0210922E0287E01B
:10188000E8E6F2E0DF011D928A95E9F7BCCF819F7F
:10189000C0011124805D9D4F0E945B0A882309F4DA
:1018A000B9CFE0912E021E9FF0011124E05DFD4FA3
:1018B00020813181428153816481758186810E94BA
:1018C000360880912E0290E00196877099278093C8
:1018D0002E029ACF809197028695869586950895D7
:1018E000809197028770089590919702977081E098
:1018F00009F480E008958091C30208959091C30295
:10190000892B8093C302089580959091C3029823F8
:101910009093C30208951092C30208959091C20259
:10192000892B8093C202089580959091C2029823DA
:101930009093C20208951092C202089508950E94E1
:101940009E0C089590919802292F282331F08095BC
:101950008923809398020E949F0C089508950E9405
:10196000AE0C089590919902292F2823281729F069
:10197000982B909399020E94AF0C08959091990230
:10198000292F282331F080958923809399020E9482
:10199000AF0C089580919902882329F01092990242
:1019A00080E00E94AF0C0895CF93C091C302809154
:1019B000C202C82B80919902882331F0C82B0E9463
:1019C000DD2481110E94CA0C8C2FCF910895CF93F2
:1019D000DF93C0910601D09107010E94D40C888347
:1019E000C0910601D091070148E050E06FE872E035
:1019F000CE010E94ED30892B59F088E0FE01AFE85E
:101A0000B2E001900D928A95E1F7CE010E946C241C
:101A1000DF91CF910895CF93DF93C0910401D091CE
:101A200005010E94D40C8983C0910401D091050165
:101A300040E250E06FE672E0CE010E94ED30892B6B
:101A400059F080E2FE01AFE6B2E001900D928A9576
:101A5000E1F7CE010E947724DF91CF910895809124
:101A60004E01882339F080918A0387FF03C00E94CA
:101A70000B0D08950E94E70C089508950E943D0DF6
:101A8000089590918B0392FF11C098E0899F900177
:101A90001124622B609397020E948808809197021C
:101AA0008695869586950E943E0D08950E94880829
:101AB00008951092970280E00E943E0D0895909143
:101AC00097028095892380939702282F277069F4C5
:101AD000891759F090918B0392FF07C086958695E0
:101AE00086950E9498080E94590D089590918B0345
:101AF00092FB222720F9281769F080FB92F9909336
:101B00008B0380918A0390918B030E94BE0D82E02B
:101B10000E945F0D089580918B0382FB882780F9D6
:101B200091E089270E94760D089581E00E94760D4C
:101B3000089580E00E94760D08956FEF7FEF90E0AA
:101B400080E00E944531089590E080E00E941131CC
:101B500021E0853E9E4F09F020E0822F089582E02B
:101B600090E00E940331089583E090E00E940331E9
:101B7000089584E090E00E9411310895BC0184E052
:101B800090E00E9445310895AB01BC018FE090E0E8
:101B90000E9439310895AB01BC0183E190E00E94BD
:101BA0003931089560E070E0CB010E94CB0D0895BB
:101BB00060E070E0CB010E94C40D0E94D20D089538
:101BC000A8E0B0E0E6EEFDE00C94273065EE7EEF95
:101BD00090E080E00E94453160E082E090E00E9469
:101BE000273181E090E090932D0280932C0261E0F8
:101BF00083E090E00E94273160E074E184E090E0AF
:101C00000E94453160E086E090E00E94273160E06C
:101C100087E090E00E94273140E050E0BA0188E080
:101C200090E00E94393160E083E290E00E94273129
:101C300060E08CE090E00E94273160E08DE090E071
:101C40000E94273119821A821B821C821D821E82E9
:101C50001F82188648E050E067E170E0CE010196EF
:101C60000E94173140E050E0BA018FE190E00E94FD
:101C700039310E94D80D2896E2E00C9443300E943E
:101C8000E00D0895682F8EE090E00E9427310895BE
:101C9000A6E0B0E0EEE4FEE00C9425300E94A2261F
:101CA0008C018091C4029091C5028017910781F048
:101CB00019821A820E94A226682F49815A81792F9F
:101CC00080E090E00E945B041093C5020093C40280
:101CD0002696E4E00C9441300E9484116093D40273
:101CE0007093D5028093D6029093D7026093D0026E
:101CF0007093D1028093D2029093D30208950895F5
:101D000008950E947F0E089508950E94840E0895FC
:101D100081E0089589EA91E10E94BB150E94800E3E
:101D20000E94810E08950E946013089508950895F9
:101D30000E94960E0E94970E08950E94A40D811194
:101D400002C00E943F0E0E94AF0D8093D8020E94F5
:101D5000B90D90938B0380938A030E94C41E0E9446
:101D6000B40D90E00E944C0880912A0290912B02C1
:101D70000E946D0808950E9499260E945E110E949B
:101D800066130E94B7120E949D0E0E942F040E94AB
:101D9000F41F0E949E1C0E9478130E94850E0895D5
:101DA000A6E0B0E0E6EDFEE00C941E300E94880E46
:101DB00081110EC00E94480E0E9460130E94E91D0E
:101DC0000E94BA220E9442042696EBE00C943A301C
:101DD0000E94DA1286ECA82E82E0B82E750110E07F
:101DE000F70101917F01812F0E94B3111F5F1A300B
:101DF00009F441C00817A1F38091D80281FD0E9427
:101E0000B9110E94930EC82E10E099249394812F4B
:101E10000E94B311082FF50181915F01081729F184
:101E2000F12CEE24E394D02ED8268D2D8E21A9F00E
:101E3000CC2099F0F9821A830E94A2269C838B837E
:101E40009D8291E0802F8E2109F490E049815A8192
:101E50006B817C818D810E945B04F394EE0CF7E032
:101E6000FF12E3CFF501319700831F5F1A3079F637
:101E70000E946C0EA1CF0813BFCF9CCF1F93CF93AE
:101E8000DF930E946D10EC01C11580E5D807F0F5D5
:101E9000C11580E4D80708F09CC0C03ED10520F5EC
:101EA000CD3CD10508F082C0C83AD10578F4C53AD6
:101EB000D10508F073C0C130D10519F1209709F19F
:101EC000C430D105F0F4D0E0C0E01BC0C33CD10564
:101ED000D0F7C85AD0E0CC0FDD1FC857DE4F0990AD
:101EE000D881C02DD4640DC0C11580E2D80708F098
:101EF000D1C0C11581E0D80708F05AC0C83ED1054D
:101F000010F7CE01DF91CF911F910895C03682E581
:101F1000D80718F5C03482E5D80708F06BC0C03286
:101F200082E5D80708F05FC0C11582E5D80708F43C
:101F300097C02C2F2695269580E2289F900111248A
:101F40008C2F8370C1E0D0E002C0CC0FDD1F8A95DA
:101F5000E2F7C22BD32BDD68D4CFC03A82E5D80795
:101F600060F4C03882E5D80708F459C0CF71D0E0DA
:101F7000DC2FCC27C46FD06AC4CFC03C82E5D80721
:101F800008F462C0C03E82E5D80708F09CCFDC2F81
:101F9000CC27CC27DF71C06FD06AB3CFC55AD0E051
:101FA000C254DE4FC881D0E0D064ABCFD065A9CF9A
:101FB0008D2F0E940F11182FCE0199270E946D10AE
:101FC000C12FD0E0DC2FCC27CC27DF71C82BD92B39
:101FD00098CFCE0199270E946D10CC27DF70C82BB7
:101FE000D92BD06A8ECFCF71D0E0DC2FCC27C16F38
:101FF000D06A87CF2C2F26952695277080E2289FC0
:10200000900111248C2F8370C1E0D0E002C0CC0F6E
:10201000DD1F8A95E2F7C22BD32BDC6872CF2C2F01
:1020200026952695277080E2289F900111248C2FF9
:102030008370C1E0D0E002C0CC0FDD1F8A95E2F7CB
:10204000C22BD32BDA685DCF8C2F8F710E940F11BA
:10205000C82FD0E0DC2FCC27CC27DF71D06251CF46
:102060008C2F8F710E940F1155E0D695C7955A9508
:10207000E1F7CF70D0E0DC2FCC27282F30E084FFB1
:1020800005C044E0220F331F4A95E1F7C22BD32B42
:10209000D06937CF8D2F8F710E940F11182FCE016D
:1020A00099270E946D10C12FD0E0DC2FCC27CC27C0
:1020B000DF71C82BD92BD2CF462F7A3030F467305E
:1020C00020F4672F0E942803089590E080E008958F
:1020D0000E945C100E943E0F089582389105B9F16C
:1020E000B0F48133910509F47DC048F4893291053B
:1020F00009F46DC08A32910509F47BC008958533D7
:10210000910509F45FC08933910509F10895833E73
:102110009105D9F138F4803E910529F1823E91056F
:1021200079F10895863E9105D9F1873E910509F42C
:102130003EC0843E910541F520918B0321FF24C0D0
:1021400080918A0384FD19C087EE90E00895209164
:102150008A03237009F05AC020918B0323FF14C017
:1021600089E290E0089520918A0320FD38C03091E3
:102170008B0330FF09C024FF43C090E080E0089546
:1021800020918A0322FDF7CF089520918A0322FD32
:102190003AC030918B0330FD39C024FFF5CFEDCF2D
:1021A00020918A0323FFF0CF24FDE7CFCDCF2091EC
:1021B0008A0323FD2EC030918B0331FFEECF84EED6
:1021C00090E0089520918A0325FFDECFC9CF2091AA
:1021D0008A0325FD21C020918B0323FFD5CF89E3FE
:1021E00090E0D2CF20918A0326FFCECF8AE290E002
:1021F000089520918A0326FFC7CF81E390E00895D8
:1022000083EE90E0089582EE90E0089580EE90E0F5
:10221000089586EE90E0089585E390E0089590910A
:102220008A0392FF10C041E0282F2471243009F066
:1022300040E031E0282F2871283009F030E04317C2
:1022400011F02CE0822793FF10C041E0282F247169
:10225000243109F040E031E0282F2871283109F0BD
:1022600030E0431711F02CE0822730918B0330FFD0
:1022700010C051E0282F2171213009F050E041E0D9
:10228000282F2871283009F040E0541711F029E078
:10229000822731FF10C041E0282F2171213109F040
:1022A00040E031E0282F2871283109F030E0431751
:1022B00011F029E0822794FD877E089510928C0307
:1022C00010928D0310928E0310928F030895CF9277
:1022D000DF92EF92FF926B017C010E9460138111EB
:1022E0000EC00E94AE26C61AD70AE80AF90AC092A2
:1022F0008C03D0928D03E0928E03F0928F03FF90B7
:10230000EF90DF90CF9008950F931F930E9460137A
:10231000882329F00E94AE261F910F9108950E94F4
:10232000AE2600918C0310918D0320918E03309185
:102330008F03600F711F821F931FEECF0E946013E7
:10234000882319F00E94A22608950E948411CB01CF
:10235000089580E0089508950E94AB1108950895AE
:102360000E94AF110895E82FF0E0E556FC4F808100
:102370000895089580EA8A95F1F7089500C00895B8
:102380000E94BA11089508950E94C3110895A5E00E
:10239000B0E0EDECF1E10C9423300E946013F82ED4
:1023A0006091A503882309F440C085E0E82E8E01E2
:1023B0000F5F1F4FF8018E2D11928A95E9F7862F36
:1023C00090E0B80185569C4F0E9486138823B9F08F
:1023D0008091900390E045E050E0B80185569C4F15
:1023E0000E94ED3021E02093D902892B91F4F12C49
:1023F0000E94B0118F2D2596E6E00C943F3080911D
:10240000D9028823A1F3F8011192EA94E9F7109216
:10241000D902A0919003B0E0A556BC4F85E0F80129
:1024200001900D928A95E1F7E3CF70E065567C4FFD
:102430008091900390E085569C4F0E940D140E945D
:10244000C411D8CFF894E82FE295EF70F0E031A1F5
:10245000282F2F7081E090E001C0880F2A95EAF7BD
:10246000982F9095932391A392A1892B82A378947E
:1024700008950F931F93CF93DF93C8ECD1E0899118
:102480008F3F11F00E94221281E0CD3CD807B9F7AE
:10249000C1ECD1E008EC11E089918F3F11F00E946E
:1024A00022120C171D07C1F7DF91CF911F910F91D9
:1024B0000895B0E0A0E0EFE5F2E10C942130EC01EA
:1024C000D62E062F10E0C80188539E4F7C01FC01D8
:1024D00080818F3F09F444C0F894E82FE295EF70B3
:1024E000F0E091A18F7021E030E001C0220F8A95C9
:1024F000EAF7892F822B81A382A12095282322A38A
:1025000078940E94BE11E1ECF1E031E0C12C219100
:102510002F3F59F1A22FA295AF70B0E090968C9109
:1025200090E02F7002C0959587952A95E2F780FD7F
:102530001CC0832FC82A330F81E0E83CF80739F725
:10254000F70180818F3F11F00E94221261E0C110DB
:1025500001C060E08D2D0E94C011C00FD11FC88244
:10256000CDB7DEB7E8E00C943D3080E0E3CF80915A
:1025700008018091080195E0811190E09093A503F6
:1025800085E0891B809390030E9439128AE0EBE971
:10259000F3E0DF01982F1D929A95E9F7E1E9F3E066
:1025A000DF011D928A95E9F785E00E9418130E94C9
:1025B000AC110895AAE0B0E0E0EEF2E10C94243012
:1025C0008E010F5F1F4F8AE0F80111928A95E9F79B
:1025D000F12C6F2DC8010E945912F394F5E0FF12FF
:1025E000F8CF4AE050E0B80181E993E00E94ED3075
:1025F00021E0009709F420E0892B41F08AE0F801FE
:10260000A1E9B3E001900D928A95E1F76091A503ED
:1026100070E065567C4F45E081E993E00E94191314
:10262000182F0E94C711812B2A96E5E00C944030A8
:102630000895B0E0A0E0EFE1F3E10C9421306C01EB
:102640007B01042FC22F222379F081E08093DC02EA
:102650000E94A2269093DB028093DA0280E0CDB73D
:10266000DEB7E8E00C943D30D091DC02DD23B1F31D
:102670008091DA029091DB020E94BA26059770F3EE
:1026800010E0A801B601C7010E94ED30892B31F09E
:10269000A801B601C7010E94FA30CD2F1092DC02CA
:1026A0008C2FDDCFCF930E946F2FC82F811102C0D6
:1026B0000E946A2F8C2FCF9108958091E002089597
:1026C0008091DF0208950E94601308950E945213C2
:1026D0008093DF020E9463138093E0020E945D13E7
:1026E000809308010E94601381110E94BC13089519
:1026F0000E946013811102C00E94BF13089581E0FF
:102700009091E1029A3008F080E008950F931F93B2
:10271000CF93DF93EC018B018091E1028A30B8F412
:10272000B801CE010E940A14C82F811122C08091E5
:10273000E1028F3FB9F40E94A2269093DE028093BB
:10274000DD028C2FDF91CF911F910F910895809121
:10275000DD029091DE020E94BA26843F914000F78C
:10276000C0E0EFCF8F5F8093E1028A3020F7C1E0B5
:10277000E8CF1092E102E5CF0E947D2708950E94E4
:1027800080270895B0E0A0E0E8ECF3E10C9422305B
:102790007901C82F880FDD0B41155105A9F0FE0105
:1027A00093E0EE0FFF1F9A95E1F7E75FFE4F8181FF
:1027B00092818E519D4F208130E04217530708F4DB
:1027C0009A01A9010E94FA30CE010E946928D82EF0
:1027D0008823D1F001151105B9F083E0CC0FDD1F7E
:1027E0008A95E1F7FE01E75FFE4F438150E0041751
:1027F000150708F4A801C75FDE4F6C817D816E511B
:102800007D4FC7010E94FA308D2DCDB7DEB7E7E0CE
:102810000C943E300E94371508950E945815089573
:10282000A4E0B0E0E6E1F4E10C942530609104030B
:102830007091050380910603909107030E94C926B9
:1028400011E0643671058105910518F10E9484112B
:102850006E5F7F4F8F4F9F4F69837A838B839C83FB
:1028600010E000E030E020E044E050E0BE016F5FA7
:102870007F4F82E00E94C213182F882351F00E94DC
:10288000AE26609304037093050380930603909330
:102890000703812F2496E4E00C944130B0E0A0E0DF
:1028A000E4E5F4E10C941F307C015B016A010E94B5
:1028B0007F1301E010E0882311F00AE010E0C1E08E
:1028C000D0E0B501C701F6010995811104C0219638
:1028D0000C171D072CF4CDB7DEB7EAE00C943B30A3
:1028E000CC9F9001CD9F300D300D112490E080E001
:1028F00045E34A95F1F70000019682179307C1F767
:10290000E0CFABE0B0E0E7E8F4E10C942530CE0195
:1029100001960E94BB1B1B856091080370910903FF
:1029200080910A0390910B030E94C92664367105B9
:102930008105910510F41123C1F010E000E030E0B2
:1029400020E04BE050E0BE016F5F7F4F83E00E94CC
:10295000C213882369F00E94AE2660930803709327
:10296000090380930A0390930B030E94B81B81E034
:102970002B96E4E00C944130A6E0B0E0E2ECF4E108
:102980000C941F307B01C090CD01D090CE0101E0AE
:1029900010E09E012A5F3F4F50E040E070E060E0B1
:1029A00080E00E94C213182F882309F448C0560102
:1029B0008FEFA81AB80A609100037091010380910B
:1029C0000203909103030E94C926643671058105B4
:1029D000910568F105E010E09E012F5F3F4F50E048
:1029E00040E070E060E081E00E94C213D82E65E014
:1029F00070E0C5010E94F51F11E09E81981310E060
:102A00001D2141F10E94AE266093000370930103E3
:102A1000809302039093030385E0FE013196ABEFB0
:102A2000B2E001900D928A95E1F711E013C065E0E4
:102A300070E0C5010E94F51F9E818913CBCF85E010
:102A4000F6013196DE01119601900D928A95E1F71B
:102A50001111E2CF85E0EBEFF2E0D70101900D928A
:102A60008A95E1F7812F2696EAE00C943B300F938C
:102A70001F93CF93DF93EC018B014CEB54E10E9449
:102A80004E14811106C080E0DF91CF911F910F910C
:102A9000089540E154E1B801CE010E944E1488230C
:102AA00091F341E854E1B801CE010E944E14ECCFFD
:102AB000ABE0B0E0EEE5F5E10C9421300091CD0102
:102AC0001091CE01C801019625E0FB01DC010190C7
:102AD0000D922A95E1F765E070E00E94F51FF8017C
:102AE00080836681778180859185C090F702D09040
:102AF000F802E090F902F090FA026C157D058E055F
:102B00009F0551F06093F7027093F8028093F902E9
:102B10009093FA020E9467118BE0F8013A96DE0169
:102B2000119601900D928A95E1F7F801148A8B8530
:102B3000882329F060E0CE0101960E94E41C2B96C8
:102B4000E8E00C943D300E94D00E08950E943B2690
:102B50000E94262A0E948A0E0E94402A0E94BB0ED2
:102B60000E944D2A0E94522A0E94A3150E946C2A9C
:102B70000E94980EF7CF9093FF018093FE01089575
:102B8000EF92FF920F931F93CF93DF93EB01E82F08
:102B9000D1110EC0442321F0F0E0E659FC4FE4913E
:102BA0006E2F7E2F8E2FCDB7DEB7E6E00C943F3030
:102BB0000D2F10E0282F30E0442329F026593C4FF8
:102BC000F901249130E0F6E0CF9FC0011124EFEF2E
:102BD000F0E0BF010E94962FAB018C2F90E0880F90
:102BE000991FA5E5A49FB001A59F700D1124861B18
:102BF000970B982F990F980FBF01601B710B629F65
:102C0000D001639FB00D729FB00D11248B2F9D9F3B
:102C1000B0011124672F7727EF01C61BD70BBE0128
:102C2000629FE001639FD00D729FD00D11247F0140
:102C3000E91AF108E09EB001E19E700DF09E700D62
:102C40001124672F7727E61BF70BE29F8001E39F94
:102C5000100DF29F100D1124E12F722F42305105FB
:102C600099F048F44115510569F04130510581F062
:102C7000EB2F8D2F07C04430510569F080F04630AE
:102C80005105B1F76E2F8FCFE22F7B2F812FFACF17
:102C9000E22F7D2FF7CFEB2F822F712FF3CF7B2FDA
:102CA000822FED2FEFCF41E00E94C01508950895C7
:102CB0000E9453160895CF93DF93762FE901682F72
:102CC000842F0E945816798368838A83DF91CF917D
:102CD00008958091A603982F9C7F29F483708460C7
:102CE0008093A60308958C3AE8F38370886AF8CF3E
:102CF000B0E0A0E0EEE7F6E10C94213088E090E04F
:102D00000E940B316B017C0183E290E00E94033151
:102D1000282F30E040E050E060E070E080E090E09C
:102D200000E20E944E30B22FA32FF42FE52FD62FB2
:102D3000C72F97018601BC29A12BFE295E2F532B9B
:102D40002B2F3A2F4F2F6D2F7C2FCDB7DEB7E8E01A
:102D50000C943D30B0E0A0E0E0EBF6E10C941D30C7
:102D600049015A016B017C010E9469168401A4018A
:102D70006A2D7B2D88E090E00E94393194014A2D24
:102D80005B2DB601C70100E20E946930622F83E229
:102D900090E00E942731CDB7DEB7ECE00C943930DB
:102DA000E6EAF3E085E0808311828FEF82838383FC
:102DB0001482AFE5B3E012968C911297836012965D
:102DC0008C93758125E030E04FEF5FEF60E0868106
:102DD00097810E94AA1608958091A60380FF03C0E0
:102DE00086958695089580E008959091AA03933082
:102DF00018F49F5F9093AA03882391F02091A60373
:102E00003091A7034091A8035091A9036091AA03B0
:102E10007091AB038091AC039091AD030E94AA1610
:102E2000089581E00E94F51608959091AA039923D0
:102E300019F091509093AA03882391F02091A60352
:102E40003091A7034091A8035091A9036091AA0370
:102E50007091AB038091AC039091AD030E94AA16D0
:102E6000089581E00E941517089560912D018091C9
:102E7000A60380FF0FC070E080912C0123E0829FA9
:102E8000C0011124E091FC01F091FD0182559C4F9D
:102E90000995089580912E0190912F0123E0829F42
:102EA000F0011124E255FC4F891728F71182108296
:102EB00012828F5F3396F8CF9091A60390FF0EC0D9
:102EC00090912E0120912F0133E0939FF001112466
:102ED000E255FC4F921718F00E9435170895818330
:102EE000608342839F5F3396F5CFA3E0B0E0EBE7CA
:102EF000F7E10C9427309091A60390FF0AC09E0141
:102F00002F5F3F4F0E945B164B8169818A810E942F
:102F10005C172396E2E00C944330CF93DF93EC01EF
:102F2000EC81F0E0EB59FD4F4491E6EAF3E0628179
:102F300081810E9475178C818F5F8C83DF91CF9187
:102F40000895CF93DF93EC01E6EAF3E043816281D9
:102F50008C810E9475178C818F5F8C83DF91CF915C
:102F60000895A3E0B0E0E7EBF7E10C9425308C0185
:102F700080910C0381110AC09E012F5F3F4F4FEFDC
:102F80006FEF0E945B168A8180930C03F8016481C5
:102F9000613069F080910C0340E0662361F040E00D
:102FA000623011F440910C0380E060E004C0609155
:102FB0000C0340E080E00E945C17F801848190E0FF
:102FC000019663E070E00E94AA2F84832396E4E0D8
:102FD0000C944130A3E0B0E0E0EFF7E10C94203036
:102FE000082FE62EF42EC22E9091A60390FF41C02A
:102FF0002091A703281308C08091A803861304C05A
:103000008091A903841729F08091610382608093E5
:103010006103E92FE695E695AE2FB0E0A153BE4FD0
:103020008C9180935F039C7F943039F59E012F5FD4
:103030003F4F4F2D6E2D802F0E945B164B81698173
:103040008A810E945C170093A703E092A803F09284
:10305000A903CC2071F02091A6036091AA0370917E
:10306000AB03302FA7018091AC039091AD030E9478
:10307000AA162396E9E00C943C30823019F4F090C3
:10308000A903E1CF8630A1F1893091F18931D9F6D8
:10309000E9516E2F6170B62EE695F0E0EB59FC4FCA
:1030A0001491D12C60913001D61618F00E9435177A
:1030B000CACFD19EC001112470E00E94962F802FAC
:1030C000B11014C0860F20912E01622F6D0D77274D
:1030D000771F9B01220F331F260F371F22553C4FAE
:1030E0004F2D6E2D0E945B16D394DCCF861BEBCF49
:1030F000022FA9CFE6EAF3E09181282F4381628174
:1031000088E0890F0E94EA17089581E00E947A18EA
:103110000895E6EAF3E09181282F4381628188EFE8
:10312000890F0E94EA17089581E00E948918089586
:10313000E6EAF3E0628128E0620F08F46FEF282FDF
:10314000438181810E94EA17089581E00E949818C6
:103150000895E6EAF3E0628128E0621B08F460E08B
:10316000282F438181810E94EA17089581E00E94FF
:10317000A9180895E6EAF3E0438128E0420F08F435
:103180004FEF282F628181810E94EA17089581E024
:103190000E94BA180895E6EAF3E0438128E0421B52
:1031A00008F440E0282F628181810E94EA17089587
:1031B00081E00E94CB18089520E00E94EA1708954C
:1031C000EF92FF921F93CF93DF93EC0110E0EE2478
:1031D000EA94F12C60913001161770F00E943517B7
:1031E0009A818C8190FF27C08F5F8C83DF91CF9174
:1031F0001F91FF90EF90089520912E01422F410FD3
:103200005527551FCA019A01220F331F280F391F56
:1032100022553C4F70E0C7010E94AA2F962F8C8147
:103220004091A9036091A803199F800D11240E9469
:103230005B161F5FCFCF8150D8CFB0E0A0E0E3E2B4
:10324000F9E10C941D30EC018A81BB24BA9480FD15
:1032500002C0BB24B3948C8181110AC081E0B812F2
:1032600022C080913001815080930E0381E08C83D5
:10327000A12C4EE0942E80913001A816B8F00E9447
:10328000351780910E0391E0B91259C0811152C0D7
:1032900080913001815080930E031C82CDB7DEB740
:1032A000ECE00C94393010920E03E0CF00912E0127
:1032B000CA2CD12C0C0D1D2D111DC801880F991F72
:1032C000080F191F02551C4FF8011182108212823B
:1032D00034E0E32EF12C812C80910E03880D8F3089
:1032E0001CF1692D0E94882F892F082E000C990B44
:1032F000C816D90691F48091A9038E9DA0018F9DD7
:10330000500D112455954795559547959801609115
:10331000A8038091A7030E945B168B0CF1E0EF1AC3
:10332000F108D1F6A394A7CF87FFDFCF90913001AA
:10333000890FDBCF815080930E03BC82AFCF90E02A
:1033400001966091300170E00E94AA2F80930E03D5
:103350008C83A4CFEF92FF920F931F93CF93DF93B1
:10336000EC018C81811109C081E08C8310920D03E6
:1033700092E090932B0180932A0180912E019091ED
:103380002F0123E0829FF0011124E255FC4F8917A1
:1033900058F110E003E060913001161758F10E94D7
:1033A000351780912A0120910D03280F20930D03DA
:1033B00090912B01980F90932B01191654F4022E23
:1033C000000C330B409130014150550B2417350749
:1033D00034F0819580932A01813009F41C82CDB7A5
:1033E000DEB7E6E00C943F301182108212828F5FCC
:1033F0003396CDCFE12EF12C70E0C7010E94AA2FA9
:1034000020912E01820F482F50E020910D03022EB3
:10341000000C330BE216F306BCF020912B01022EB8
:10342000000C330B2E153F057CF0809F900111247A
:1034300022553C4F4091A9036091A8038091A703B6
:103440000E945B161F5FA7CFFA01EE0FFF1FE40F6C
:10345000F51FE255FC4F118210821282F3CFB0E0CB
:10346000A0E0E5E3FAE10C941D30EC014C81042F5F
:1034700010E09801D8010E94EE2F9B01AC010E9440
:1034800004304B015C01E0E2F0E0E01BF10BA5E54C
:10349000B0E0AC019B010E9404306B017C019F01F4
:1034A000DF010E94E62F9B01AC010E940F309B01BF
:1034B000AC01280D391D4A1D5B1DC701B6010E94D4
:1034C000BE2FF22E822F90E039E23F1520F143E02B
:1034D000249F9001112435952795122F109500E017
:1034E00085E5E82EEF1880913001081718F10E9449
:1034F00035179C8181E0992319F0903219F48FEFF0
:103500008093290180912901890F8C83CDB7DEB783
:10351000ECE00C94393025E530E0B901681B790BFB
:103520009B01220F331F260F371F37FFD4CF2F5F8A
:103530003F4FD1CF8E2D01FD8F2D20912E01622F77
:10354000600F7727771F9B01220F331F260F371F2E
:1035500022553C4F412F6091A8030E945B160F5FDC
:10356000C2CF0F931F93CF93DF93EC0110E000E0E5
:10357000909130019017110609F06CF40E943517F4
:103580008C8190E00196817099278C83DF91CF9197
:103590001F910F91089520912E01A801420F511DF6
:1035A0009A01220F331F240F351F22553C4F4C81A7
:1035B0006091A8038091A70396959017110651F08A
:1035C0004CF0442349F04091A9030E945B160F5F21
:1035D0001F4FCECF4423B9F340E0F7CFB0E0A0E0D7
:1035E000E4EFFAE10C941930FC016280448081E040
:1035F0008483E5E6F2E07490E4EEF2E0E491C091B9
:10360000A903C695C158D0E0CC0FDD1FCD2FDD2713
:10361000812C75E0972EAA24AA94B12C55245A9493
:10362000E719EE2EF12C80913001881638F00E94B7
:103630003517CDB7DEB7E0E10C943530C82CD12C6E
:1036400082E0861568F09C9CF0019D9CF00D112491
:10365000EE5EFC4F8091A70380838091A803818355
:10366000411023C09C9CF0019D9CF00D1124EE5E46
:10367000FC4F1382128220912E01C601820F911DF0
:103680009C01220F331F280F391F22553C4F9C9C51
:10369000F0019D9CF00D1124EE5EFC4F4281618192
:1036A00080810E945B168394BECF9C9C80019D9C70
:1036B000100D11240E5E1C4FF80183818823F1F058
:1036C00081508383859DC0011124648170E00E9434
:1036D000962FFB01FF27EB59FD4F8491E82FE71947
:1036E000E59DC0011124B7010E94962F8091A90386
:1036F000689FB0011124F8017283BDCF0E94D030C1
:10370000B5010E94AA2F8C179D070CF0B4CFF2E0F0
:10371000F61598F40E94D030B5010E94AA2FF80146
:1037200080830E94D0302091A8032695622F70E0FC
:103730000E94AA2F280FF80121839C9CF0019D9CD8
:10374000F00D1124EE5EFC4F12828091A903893C9A
:1037500058F088EC9C9CF0019D9CF00D1124EE5ECD
:10376000FC4F8483838387CF8431A0F784E1F2CF39
:1037700010926103089528E0E6EAF3E0DC0101908D
:103780000D922A95E1F720915F03309160034091FB
:103790006103FC012087318742870895EFE5F3E05C
:1037A00011828281846082830895E6EAF3E0808159
:1037B0008E7F80830E94CE1BEFE5F3E082818160E3
:1037C00082830E9435170895E6EAF3E020812E7F78
:1037D0002083318142815381648175818681978103
:1037E0000E94AA160E94CE1BEFE5F3E08281816061
:1037F00082830E94351708956091A60366956695A9
:1038000070E04BE050E081E391E00E94E030892BD2
:1038100019F481E0809360030E949E1190935903F4
:1038200080935803809161038460809361030895BD
:103830009091A60390FF39C09370811137C09460B6
:103840009093A60380916103816080936103662356
:1038500091F02091A6033091A7034091A8035091C5
:10386000A9036091AA037091AB038091AC0390917E
:10387000AD030E94AA166091A6036695669570E056
:103880004BE050E081E391E00E94E030892BB1F001
:103890000E94CE1B81E080935B034091A90360915D
:1038A000A8038091A7030E94DC1808958B3210F0C2
:1038B000986AC6CF880F880F982BC2CF0E94FC1B36
:1038C000E9CF682F9091A6039695969581E0890F90
:1038D0008B3208F081E00E94181C089581E00E945C
:1038E000611C0895682F9091A603969596958FEF89
:1038F000890F09F48AE20E94181C089581E00E9451
:10390000721C089561E00E94181C0895E6EAF3E035
:10391000808181608083869586950E94821C0895AF
:103920008091A60380FF03C00E94E41B08950E94BB
:10393000861C089560E00E94181C089580915E0323
:10394000811141C00E9478162093A6033093A703EB
:103950004093A8035093A9036093AA037093AB0309
:103960008093AC039093AD03809161038360809357
:1039700061032C7FA1F40E94D0160E947816209338
:10398000A6033093A7034093A8035093A903609321
:10399000AA037093AB038093AC039093AD030E9492
:1039A00069160E94CE1BE091FA01F091FB01099586
:1039B0008091A60380FF04C0869586950E949A1C7C
:1039C00081E080935E0308951F93CF93DF93EC0112
:1039D000162F8A8580FF0DC0888180FF25C08091C9
:1039E000A60381608093A6038881869586950E94B0
:1039F000181C8A8581FF06C0212F4B816A8189812D
:103A00000E94EA178A8582FF05C08985882379F09C
:103A10000E94FC1B8A8583FF03C081E080935B03C7
:103A2000DF91CF911F9108950E94D51BE2CF0E9494
:103A3000CE1BF0CFEF92FF920F931F93CF93DF93A4
:103A400080916003882309F464C080915F03E09152
:103A5000A603E695E695E81BE0935A03823009F049
:103A60005DC0F0E0EF59FD4FE491CE2FD0E00DE8BE
:103A700017E180915B03882361F010925B030E9441
:103A80009E11909359038093580310925D031092F6
:103A90005C030E949E11E0915803F09159039C0130
:103AA0002E1B3F0B2F3F3F47A0F5209111032223F0
:103AB000B1F01092110320910F0330911003821B7B
:103AC000930B8F3F9F4758F4205D3A483093100383
:103AD00020930F0380916103886080936103E090DD
:103AE0005C03F0905D03EC0FFD1FF0935903E0932E
:103AF000580388E593E0F801099580915C03909163
:103B00005D03892B31F4E114F10419F081E0809315
:103B10001103CDB7DEB7E6E00C943F30863049F4B0
:103B2000F0E0E25AFD4FE491CE2FD0E001EA17E138
:103B3000A0CF893051F4E695F0E0E55AFD4FE491CD
:103B4000CE2FD0E000EE18E194CF8F3051F4E695FF
:103B5000F0E0E85AFD4FE491CE2FD0E00DE119E1FD
:103B600088CF853149F4F0E0EB5AFD4FE491CE2F38
:103B7000D0E00AEA19E17DCFC8E2D0E00FE21AE115
:103B8000883109F476CF833239F4E3E5F2E0C59168
:103B9000D49101EB17E16DCFC4EFD1E001EB1AE155
:103BA000843209F466CFC0EDD7E007E516E185322F
:103BB00009F05FCF8E2F63E00E947C2FE92FF0E0A9
:103BC000E05BFD4FE491CE2FD0E00EEE1AE151CF35
:103BD00008950E941A1D0895FA01811101C0FB0188
:103BE00009950895CF93DF93C82FD62F0E94EC1626
:103BF0008C1748F00E94EC168D1728F40E946E1C5A
:103C0000DF91CF9108958C2F0E94821CF9CF1F93D2
:103C1000CF93DF93EC01FB011581111110C00E94BD
:103C20007B0C8272FE01E052F847E531F10508F0A5
:103C30005EC0E857FE4C0C94E02F0E94901C812F30
:103C4000DF91CF911F9108954EE75CE16EE67CE134
:103C50000E94EC1DF4CF4EE65CE16EE77CE1F8CF0C
:103C600044E958E165E878E1F3CF45E858E164E9D3
:103C700078E1EECF46EB58E165EA78E1E9CF45EA35
:103C800058E166EB78E1E4CF48ED58E167EC78E184
:103C9000DFCF47EC58E168ED78E1DACF41E357E157
:103CA00061E177E1D5CF41E157E161E377E1D0CF41
:103CB00081E00E94821CC3CF65E082E00E94F21D79
:103CC000BECF68E086E0FACF6EE089E0F7CF64E12E
:103CD0008FE0F4CF67E185E1F1CF88E1EACF62E2DE
:103CE00089E1ECCF83E2E5CF6AE285E2E7CF11E03C
:103CF000A6CF539A08954BB1477F5BB15860EFB799
:103D0000F8949B01220F331F260F371F280F391FEE
:103D10002817390741F4EFBF8FE594E00197F1F7D9
:103D200000C000000895DC016D91CD0178E05BB921
:103D3000000000C067FF4BB9660F000000C000C064
:103D400000C04BB900C07A9591F7E2CF0E949D0D5B
:103D5000089580E00E94B311817008950E94DA12E4
:103D60002FEF86E791E0215080409040E1F700C0BE
:103D700000000E94DA120E94A91E882321F00E94EE
:103D8000A61E0E94092708950E94AE1E0895EBEF1B
:103D9000E80FEF3308F066C0F0E0E356FE4C0C94F9
:103DA000E02F0E943F0E81E008958091D802807F2D
:103DB0008093D80281E08093650308950E94A40354
:103DC000F2CF9091D802892F8E7F90FF81608093EF
:103DD000D80280FDE8CF817F8093D802E4CF909114
:103DE000D802892F8D7F91FF82608093D80281FF56
:103DF000DACF8091D8028160EFCF9091D802892FDD
:103E00008B7F92FF84608093D80282FDF2CFCBCF6C
:103E10009091D802892F877F93FF88608093D80282
:103E200083FDE7CFC0CF0E94FF0790918A03892FBF
:103E300097FB87F9805880938A03B5CF81E090E0A3
:103E40000E944C080E94FF07AECF895321E030E06A
:103E5000A90102C0440F551F8A95E2F7CA01F0CFAD
:103E60008D51F4CF80E0089580E008950E94341FC2
:103E70000895CF93C82F809165038130B9F08823CE
:103E800031F08230A1F11092650380E00DC00E94F4
:103E90007B0C8232D1F78C2F0E94341F81111BC002
:103EA0008C2F0E94C71E8170CF9108950E947B0CB9
:103EB000823289F38C2F0E94361F81110AC0C431CF
:103EC00099F060F4CB3029F0C03169F782E080933B
:103ED000650381E0E8CF81E090E0E5CFC93221F0D1
:103EE000C833B9F380E0DFCF10926503FBCFC9324E
:103EF00009F440C0F0F4C431E9F1A8F481E0C7301E
:103F000099F68093430184E1809342018AE0809393
:103F100041018EE18093400188E080933D0188E279
:103F200080933C0104C082EE8C0F8A3070F181E0F6
:103F3000BBCFC03509F450C0B8F48AE0CF34B9F72C
:103F4000E0916203F0916303309789F32081082E9A
:103F5000000C990B820F911D8F3F910509F00CF415
:103F60003FC08FEF8083E3CFC135C1F181E0C2351F
:103F700039F39ACF809164038823C9F210926403C5
:103F80001092630310926203D2CFCD51C0936403A9
:103F9000C330C9F048F4C13099F082E491E0C230F6
:103FA00051F010926403C3CFC53099F078F08CE3E0
:103FB00091E0C630B1F79093630380936203B7CF6B
:103FC00083E491E0F8CF81E491E0F5CF80E491E0E3
:103FD000F2CF8DE391E0EFCF86EFB2CF8FEFB0CF8E
:103FE00097FFC0CF1082A3CF0895FC01680F791FFF
:103FF0008FEF91E3E617F70709F4089521918227DF
:1040000028E030E087FF06C0880F8927215031095A
:10401000C9F7F0CF880FFACFCF93DF93EB0186314A
:104020009C4711F50E947B0C9D81992399F08A7A17
:1040300091E009F490E090936603811109C089E250
:104040000E9488250E942F0D80E0DF91CF91089576
:1040500085E3F6CF80916603811104C089E20E9456
:104060009F25F0CF85E3FBCF81E0EFCFCF93DF93A8
:10407000EC01FB018581882309F4D2C09E013057F1
:104080002332310508F0B2C00E94B90D90938B0322
:1040900080938A03FE01E150F047E232F10520F4FB
:1040A000E452FE4C0C94E02F80918A03816080934F
:1040B0008A0393C080918B03886080938B038DC0AB
:1040C00080918A038260F3CF80918A038460EFCF6E
:1040D00080918A038860EBCF80918B038160EDCF64
:1040E00080918B038260E9CF80918A038061DFCF6A
:1040F00080918A038062DBCF80918A038064D7CF6E
:104100000E94FF0780918A038068D1CF80918A0343
:104110008C60CDCF80918B038360CFCF80918A0359
:104120008E7FC5CF80918B03877FC7CF80918A0315
:104130008D7FBDCF80918A038B7FB9CF80918A0319
:10414000877FB5CF80918B038E7FB7CF80918B0314
:104150008D7FB3CF80918A038F7EA9CF80918A0310
:104160008F7DA5CF80918A038F7BA1CF0E94FF070F
:1041700080918A038F779BCF80918A03837F97CF2B
:1041800080918B038C7F99CF80918A0382FB992742
:1041900090F921E0922790FB82F990FB83F987CF79
:1041A00080918B03982F909591708E7F892B90FB37
:1041B00081F983CF90918A03892F8F7B96FF80644A
:1041C00076CF0E94FF0790918A03892F97FB87F98A
:1041D00080586DCF81E00E94420E80918A039091B9
:1041E0008B030E94BE0D0E94FF0780E0DF91CF91FC
:1041F000089580E0F0CF90918A03892F8F7E94FFFD
:10420000806155CF90918A03892F8E7F90FF8160C6
:104210004ECF90918B03892F877F93FF88604DCF7E
:1042200081E0E4CF282F35EB2303C001112497FF51
:1042300004C080589109892F089580589F4FFBCF63
:1042400080916D0380FF0DC06091410170E0660FA9
:10425000771F6038710570F56115710569F1862F5A
:10426000089581FF07C06091410184E0689FB0011B
:104270001124EFCF6091410182FD0AC080916C034F
:104280008823A9F02091400160914101821710F02C
:1042900088E0ECCF869FC001112433E0880F991F7E
:1042A0003A95E1F7622F70E00E94AA2FD2CF68E022
:1042B00070E0D5CF8FE7089581E0089580916D0378
:1042C00080FF0CC060913D0170E075956795759514
:1042D00067956115710549F1862F089581FF06C024
:1042E00060913D0170E075956795F3CF60913D0158
:1042F00082FD0BC090916B039923A1F060913C016A
:1043000080913D01961738F0682F70E06038710594
:1043100000F38FE70895899FC001112470E00E9487
:10432000AA2FF4CF61E070E0D7CF81E0089590919B
:10433000700320917103922B20917303922B209193
:104340007203922B31F098E090936C0391E090937C
:104350006B038D3C31F40E94202181958093710381
:1043600008958E3C19F40E942021F8CF8F3C31F43F
:104370000E9420218195809370030895803D19F457
:104380000E942021F8CF893D29F40E945E2180936C
:10439000720308958A3D21F40E945E218195F7CF32
:1043A0008B3D31F40E945E218195809373030895C3
:1043B0008C3D19F40E945E21F8CF9FE2980F98304F
:1043C00070F4815D990B21E030E001C0220F8A95E5
:1043D000EAF780916F03822B80936F0308958D3DE0
:1043E00031F480916D03816080936D0308958E3D5B
:1043F00021F480916D038260F7CF8F3DB9F78091F2
:104400006D038460F1CF409170038D3C59F480912D
:10441000710387FF0DC01092710341110BC0109200
:104420006C0308C08E3C81F48091710318169CF3D4
:10443000442381F08091720390917303892B09F0DA
:104440005AC010926B0308958F3C49F447FFF0CF98
:1044500010927003809171038111ECCFE0CF803D09
:1044600019F41416ACF3E4CF90917203893D29F44A
:104470001916F4F610927203DBCF8A3D19F497FFF8
:10448000D7CFF8CF909173038B3D29F497FFD0CF0E
:1044900010927303CDCF8C3D19F41916CCF3C8CF0D
:1044A0009FE2980F983090F4815D990B21E030E005
:1044B000B90102C0660F771F8A95E2F7CB0180959C
:1044C00090916F03892380936F03B2CF8D3D31F4B8
:1044D00080916D038E7F80936D03AACF8E3D21F472
:1044E00080916D038D7FF7CF8F3D09F0A1CF809133
:1044F0006D038B7FF0CF08950E94A2269C019091BE
:10450000700380917103982B21F030936A032093FC
:1045100069039091720380917303982B21F030937B
:104520006803209367038EE693E00E948524089534
:1045300086E0EEE6F3E0DF011D928A95E9F710923E
:104540006C0310926B0310926D030895FC0182813D
:1045500081110EC0838181110BC08481811108C03B
:1045600091E08581811101C090E0892F81700895CB
:1045700081E0FCCFA6E0B0E0E0ECF2E20C94263063
:1045800086E0EEE6F3E0DE01119601900D928A9549
:10459000E1F710927003109271031092720310925F
:1045A00073038B819C81892B89F0809169039091A1
:1045B0006A030E94BA26AC0190916C039923C9F159
:1045C000809142018417150608F440C08D819E81B8
:1045D000892B91F080916703909168030E94BA261D
:1045E000AC0190916B03992309F46AC080913E015C
:1045F0008417150608F472C0BE016F5F7F4F8EE608
:1046000093E00E94D025811105C08EE693E00E94C0
:10461000A62281110E947C2286E0FE013196AEE640
:10462000B3E001900D928A95E1F72696E3E00C94B1
:104630004230209143018AE0289F900111242417E1
:10464000350720F69F5F90936C0302C09F3FD1F720
:104650001B81112359F00E9420219FEF11160CF4A9
:1046600091E0899F802D1124809370031C81112378
:1046700059F00E9420219FEF11160CF491E0899FC0
:10468000802D11248093710380917003882309F495
:104690009DCF10917103112309F498CF0E9412212C
:1046A000882351F080937003812F0E941221882368
:1046B00029F0809371038ACF81E0F4CF81E0F9CFB4
:1046C00020913F018AE0289F90011124241735078B
:1046D00008F092CF9F5F90936B0302C09F3FD1F78A
:1046E0001D81112359F00E945E219FEF11160CF4D9
:1046F00091E0899F802D1124809372031E811123E4
:1047000059F00E945E219FEF11160CF491E0899FF1
:10471000802D11248093730380917203882309F400
:104720006BCF10917303112309F466CF0E941221FD
:10473000882351F080937203812F0E9412218823D5
:1047400029F08093730358CF81E0F4CF81E0F9CF53
:104750000F931F93CF93DF93C42FD22FFC0185813A
:104760008823C9F0409376030E94A2269093750394
:104770008093740380E28C0F883040F4C77081E02E
:1047800001C0880FCA95EAF70E94AC05DF91CF916E
:104790001F910F91089510917603141332C08091E8
:1047A0007403909175030E94BA26883C910548F5E0
:1047B000C0E2CD0F1D17B9F080E2810F883040F4C0
:1047C000177081E001C0880F1A95EAF70E94B305BF
:1047D000C83048F481E09D2F977001C0880F9A95EA
:1047E000EAF70E94AC05802F0E94A305C83070F63E
:1047F000D77081E001C0880FDA95EAF70E94B3050F
:10480000C5CF80E28C0F883008F6C77081E001C008
:10481000880FCA95EAF7F2CF0F93DB0188519C47C6
:1048200087309105A0F5FC01E250FE4C0C94E02F7E
:1048300006E221EE41EE6AE17CE7CD010E94A82369
:1048400080E00F91089507E225EE45EE6BE17CE7ED
:10485000F4CF06E221EE40EE68E17CE7EECF07E21E
:1048600025EE44EE69E17CE7E8CF06E221EE42EE78
:104870006CE17CE7E2CF07E225EE46EE6DE17CE7F6
:10488000DCCF08E221E045EE6EE17CE7D6CF15965D
:104890008C91882319F010927603D3CF81E0D1CF89
:1048A00090937D0380937C0308950E94601381118F
:1048B00003C0809177030895E0917C03F0917D031C
:1048C000309729F00190F081E02D0995089580E05E
:1048D00008950E9455240895E0917C03F0917D0392
:1048E000309721F00280F381E02D09950895E09141
:1048F0007C03F0917D03309739F026E0DC012C93A6
:104900000480F581E02D09950895E0917C03F091F4
:104910007D03309739F022E0DC012C930680F7818B
:10492000E02D09950895A3E0B0E0E9E9F4E20C94E4
:10493000273020917A0330917B0328173907A1F0A3
:1049400090937B0380937A03E0917C03F0917D0345
:10495000309751F023E029839B838A830084F1857B
:10496000E02DCE01019609952396E2E00C944330A8
:10497000A3E0B0E0EEEBF4E20C9427302091780352
:104980003091790328173907A1F090937903809328
:104990007803E0917C03F0917D03309751F024E09F
:1049A00029839B838A830084F185E02DCE010196C3
:1049B00009952396E2E00C94433020910601309152
:1049C00007012E5F3F4F80914E01882379F080913F
:1049D0008A0387FF0BC020910401309105012E5FEF
:1049E0003F4F9EE180E0915018F4089596E0FACF91
:1049F000F90141919F014423B1F38F5FF4CF8823E4
:104A000021F190914E01992311F190918A0397FF22
:104A10001EC0E82FE695E695E695EE31B0F42091BC
:104A2000040130910501E20FF32FF11D228130E0E6
:104A3000877041E050E002C0440F551F8A95E2F7AD
:104A40002423352381E0232B91F480E008952091E5
:104A5000060130910701F9013296285F3F4F91918D
:104A6000981721F0E217F307D1F7EFCF81E008950F
:104A70009C01FC0132969FEF80E04191461751F076
:104A80009F3F19F4411101C0982F8F5F8630A9F71D
:104A90009F3F09F40895290F311D97FD3A95F901BB
:104AA00062830895FC01329608962191261303C073
:104AB000DF0111971C92E817F907B9F70895E62F5F
:104AC000E695E695E695EE3168F4E80FF92FF11DCD
:104AD000677021E030E001C0220F6A95EAF7828119
:104AE000822B82830895E62FE695E695E695EE31D2
:104AF00070F4E80FF92FF11D677021E030E001C07C
:104B0000220F6A95EAF7209582812823228308954F
:104B1000682F80914E01882359F080918A0387FF86
:104B200007C080910401909105010E945F250895BE
:104B300080910601909107010E9438250895682F01
:104B400080914E01882359F080918A0387FF07C026
:104B500080910401909105010E9473250895809130
:104B60000601909107010E945225089580914E01FF
:104B7000882379F080918A0387FF0BC0E0910401BC
:104B8000F091050132968EE1DF011D928A95E9F7D9
:104B90000895E0910601F0910701329686E0F4CF86
:104BA000DC01FB0111969C9111978181981322C021
:104BB00012968C911297882319F0928189131AC04A
:104BC00013968C911397882319F09381891312C03F
:104BD00015968C911597882319F0958189130AC031
:104BE00014969C91992321F081E02481291303C01C
:104BF00080E001C081E08170089508950E94FD2544
:104C00000895811106C081E080937E030E94FE25F5
:104C1000089582E0F9CF83E080937E030E94FE2511
:104C200008950E940126089581E080937E030E94EA
:104C3000FE2508950E9414260895089508950E945F
:104C40001E260895089508950E941D260895CF9365
:104C50000E9422260E94DA120E942326C0E08C2F96
:104C60000E94B311811105C0CF5FCA30C1F7CF9147
:104C7000089581E0FCCF85B7806885BF85B78068DF
:104C800085BF08951F921FB61F9211248F939F9383
:104C9000AF93BF9380917F03811113C08091D8039C
:104CA0009091D903A091DA03B091DB034196A11D45
:104CB000B11D8093D8039093D903A093DA03B093E6
:104CC000DB03BF91AF919F918F911F901FBE1F90EB
:104CD00018958091E003843031F10E941204109203
:104CE0007F0388E190E020E40FB6F894A8958093C4
:104CF00060000FBE2093600083B7817F846083BF14
:104D000083B7816083BF7894889583B78E7F83BF94
:104D10000FB6F894A8958091600088618093600038
:104D2000109260000FBE08950E94FF070E941704B2
:104D3000089582E084BD93E095BD9AEF97BD80937E
:104D40006E0008952FB7F8948091D8039091D903FD
:104D5000A091DA03B091DB032FBF08952FB7F89429
:104D60006091D8037091D9038091DA039091DB03AD
:104D70002FBF08959C014FB7F8948091D80390916C
:104D8000D903A091DA03B091DB034FBF821B930BD1
:104D90000895CF92DF92EF92FF922FB7F894C090D0
:104DA000D803D090D903E090DA03F090DB032FBF53
:104DB000A7019601261B370B480B590BCA01B901F5
:104DC000FF90EF90DF90CF90089578941F921FB6D8
:104DD0001F9211248F939F93AF93BF938091D80319
:104DE0009091D903A091DA03B091DB030196A11D44
:104DF000B11D8093D8039093D903A093DA03B093A5
:104E0000DB03BF91AF919F918F911F901FBE1F90A9
:104E1000189587E797E7909301088093000888E149
:104E20009AE00FB6F894A895809360000FBE909317
:104E30006000FFCF88E19AE00FB6F894A8958093C0
:104E400060000FBE90936000FFCF8EE1489B02C0D0
:104E50008150E1F7489BFECF0895589880E28A95EB
:104E6000F1F7589A0895FC013BE03A95F1F798E084
:104E700020E080E031E040E14A95F1F7880F489B5F
:104E800002C08160232742E04A95F1F7000040E12B
:104E90004A95F1F7915079F790E19A95F1F799B128
:104EA00032E03A95F1F7000040E14A95F1F7917050
:104EB00092272081920F90830895A1E0B0E0E3E66D
:104EC000F7E20C94233019828C017C01E60EF11C70
:104ED0000E151F0541F481E09981911180E0219622
:104EE000E6E00C943F300E942527CE0101960E94F7
:104EF0003327F80181938F01EBCF509A589A089588
:104F00005098589AE89AE9E6F0E080818C7F808397
:104F100008956150770B91E001C0990F6A95EAF707
:104F200020E031E0911108C0222391F0589A80E2EC
:104F30008A95F1F758980895492F482339F0589ADF
:104F4000232740E24A95F1F79695ECCF5898F9CF90
:104F50005898EDCFFF920F931F93CF93DF93EC01FF
:104F60008C01060F111DC017D10729F4CDB7DEB78C
:104F7000E5E00C944030F9900E942D2768E08F2DD9
:104F80000E948927F0CF1F920F920FB60F92112423
:104F90000F931F932F933F934F935F936F937F9341
:104FA0008F939F93AF93BF93EF93FF93CF93DF9331
:104FB0000F92CDB7DEB719820E942527CE01019648
:104FC0000E943327082F069506950695282F2295CF
:104FD0002570902F9570290F922F93702695269506
:104FE000920F982797708981982B09F05CC0053043
:104FF00008F059C080E18A95F1F7589A509A82E0FA
:105000008A95F1F700C0589888E0089F8001112424
:10501000D801A75FBE4F1696ED91FC911797309778
:10502000A9F06091CD017091CE0114962D913C9123
:105030001597260F371F11968D919C911297680F27
:10504000791F13964C9113978C910995F801E75F9E
:10505000FE4F6381662351F02091CD013091CE0146
:1050600084819581820F931F0E94AA270E942D2779
:1050700080E18A95F1F758985098589A80E18A957E
:10508000F1F7F801E75FFE4F6081662351F0209150
:10509000CD013091CE0181819281820F931F0E94B8
:1050A0005D270E9425270F90DF91CF91FF91EF910F
:1050B000BF91AF919F918F917F916F915F914F9130
:1050C0003F912F911F910F910F900FBE0F901F9046
:1050D00018950F931F93CF93DF93EC0105970CF076
:1050E0004CC0F894509A589885E08A95F1F70000E2
:1050F0009C2F969595708C2F8570980F892F8370B3
:105100009695969523E0CC0FDD1F2A95E1F7980F31
:105110008E01092B0E942D2700C068E0802F0E947D
:10512000892780E18A95F1F75098589A489B1EC0CC
:1051300087E090E048991CC0FE01E75FFE4F638165
:105140006623F9F02091CD013091CE0184819581C3
:10515000820F931F0E945D27811113C0509A589AA5
:105160007894DF91CF911F910F91089500C0DECF09
:10517000019729F4509A589A789480E0F2CF00C0B1
:10518000D9CF0E94252780E28A95F1F75898509A46
:1051900080E18A95F1F7C75FDE4F6881662351F0A1
:1051A0002091CD013091CE0189819A81820F931F88
:1051B0000E94AA270E942D27789481E0D2CF809167
:1051C000880308959B01BA019091E0039430E9F4BB
:1051D0008F708093E9009FEF8091E800915085FDEA
:1051E00006C085ED8A95F1F700009111F5CF809109
:1051F000E80085FF0AC050E040E0C9010E94E32AB0
:105200008091E8008E778093E800089543E050E0B5
:10521000BC0182E00E94E228089546E050E0BC0113
:1052200082E00E94E228089540E250E0BC0182E062
:105230000E94E2280895CF93DF93EC0148E050E00C
:10524000BC0181E00E94E22888E0FE01A0E8B3E012
:1052500001900D928A95E1F7DF91CF9108958091A9
:10526000DF03811109C00E94732C0E94D02C809111
:10527000E20084608093E20008951092DF030895B5
:105280000E94142608956091DC0381E0611101C041
:1052900080E00E940B2608959091E00381E0943015
:1052A00009F080E06091DC030E941126089542E03D
:1052B00061EC81E00E94EF2B42E261EC82E00E940F
:1052C000EF2B9091E00381E0943009F080E0609151
:1052D000DC030E94012608958091E203833009F4E3
:1052E00061C030F48130D1F1823009F49EC008955C
:1052F0008A3009F48AC08B3009F46FC0893009F014
:1053000050C08091E103813209F04BC08091E503E8
:105310009091E603029708F044C08091E800877FEF
:105320008093E8008091E80082FF37C09091F300FD
:105330008091F200029731F48091F100813011F0F8
:10534000863021F48091F100809388038091E800F9
:105350008B778093E8000E94232C23C08091E10387
:10536000813AF9F48091E800877F8093E80080918A
:10537000E5039091E603892B61F468E080E893E00F
:1053800070E00E94322B8091E8008B778093E800D8
:10539000089560E090E080E0F3CF8091E003811118
:1053A000C1CF08958091E103813AD9F78091E50357
:1053B0009091E603892BA9F78091E800877F80937D
:1053C000E8008091E80080FFFCCF80914E0180933F
:1053D000F1008091E8008E77BCCF8091E1038132AB
:1053E00001F78091E5039091E603892BD1F6809136
:1053F000E800877F8093E8000E94232C8091E303DC
:1054000080934E010E94FF0708958091E10381324D
:1054100041F68091E800877F8093E8000E94232C6A
:105420008091E4038093890308958091E103813A98
:1054300009F0B7CF8091E800877F8093E8008091E2
:10544000E80080FFFCCF80918903C1CF84B7877FBC
:1054500084BF0FB6F894A89580916000886180930E
:105460006000109260000FBE80E890E00FB6F894E4
:1054700080936100909361000FBE0E941A260895E8
:105480000E94732C0E94D02CE2EEF0E080818460B8
:10549000808378940E944F2F089584E491E00E94C5
:1054A000502408958091E003853031F48091E00329
:1054B000853019F00E94942608950E9469268091F3
:1054C000DE03882399F30E942726882379F30E941C
:1054D000CD2A0E94FF07EACF08959A014091E70381
:1054E0005091E8030E94752A0895492F55274330AB
:1054F000510519F168F44130510509F444C04230B6
:10550000510509F445C090E080E050E040E025C03E
:105510004132510549F142325105A9F784E490E046
:1055200045E955E061157105C1F086EB90E04FED5E
:1055300054E06130710589F0E6CF992781309105FB
:1055400081F0009729F00297F1F6EAE6F4E002C054
:10555000EEE8F4E0849190E0AF01F90151834083DB
:105560000895E8E7F4E0F6CF89E090E044EA54E0FB
:105570006115710591F389E090E04DEB54E06130E5
:10558000710559F3C0CF82E190E04DEC54E0E5CFD6
:105590008BE390E042E954E0E0CF80E189BD82E115
:1055A00089BD09B400FEFDCF8091D8008F7D809326
:1055B000D8008091E00082608093E0008091E0005C
:1055C00081FDFCCF0895AF92BF92CF92DF92FF9200
:1055D0000F931F93CF93DF936C01EB018A010E941D
:1055E000422CF82E811123C00115110539F0F80164
:1055F00080819181C81BD90BC80ED91EB12CA12C5A
:105600002097A9F08091E80085FD22C08091E800F4
:105610008E778093E80001151105A1F0F8018081D3
:105620009181A80EB91EB182A08285E0F82E8F2D3F
:10563000DF91CF911F910F91FF90DF90CF90BF909E
:10564000AF9008950E94422C8823D1F2F82EEFCF1C
:10565000F60181916F018093F1002197FFEFAF1A5E
:10566000BF0ACECFFC018091E7039091E803861733
:105670009707A0F06115710529F49091E8009E77D5
:105680009093E80090E06115710551F4911108C004
:105690008091E80082FF34C080E00895BC01F2CF21
:1056A0008091E0038823C1F18530C1F18091E80049
:1056B00083FD30C08091E80082FDEACF8091E80050
:1056C00080FFE1CF8091F3002091F200382F611527
:1056D000710519F02830310558F091E02830310576
:1056E00009F090E02091E8002E772093E800CBCFDE
:1056F00081918093F100615071092F5F3F4FE7CF97
:105700008091E003882341F0853041F08091E800EA
:1057100083FFBECF81E0089582E0089583E008957D
:10572000FC018091E7039091E80386179707A0F0AA
:105730006115710529F48091E8008E778093E80067
:1057400090E06115710551F4911108C08091E80055
:1057500082FF35C080E00895BC01F2CF8091E00364
:105760008823C9F18530C9F18091E80083FD31C0FB
:105770008091E80082FDEACF8091E80080FFE1CFD0
:105780008091F3002091F200382F6115710519F016
:105790002830310558F091E02830310509F090E0CB
:1057A0008091E8008E778093E800CBCF849180933E
:1057B000F1003196615071092F5F3F4FE6CF809124
:1057C000E003882341F0853041F08091E80083FFB9
:1057D000BDCF81E0089582E0089583E00895982F79
:1057E000973028F08F708093E90081E008959093BE
:1057F000E900242F762F50E0981731F07091EC00DB
:105800002091ED005091F00021FD02C09F5FE8CF94
:105810003091EB003E7F3093EB003091ED003D7F07
:105820003093ED003091EB0031603093EB007093DA
:10583000EC002093ED005093F0002091EE0027FD46
:10584000E5CF80E008958091E10387FF13C0809148
:10585000E80082FF06C08091E8008B778093E80023
:1058600004C08091E0038111F2CF08958091E0039C
:105870008823D9F38091E80080FFF8CF8091E80079
:105880008E77ECCF2091E4003091E50095E6A901F8
:105890002091EC00822F817020FF06C08091E800EB
:1058A00080FF06C080E008952091E80022FD1AC024
:1058B0008091E003882389F0853089F08091EB00A6
:1058C00085FD0FC02091E4003091E5004217530799
:1058D000F9F29150E1F684E0089582E0089583E0C2
:1058E000089581E008950E94E22C0E94EA2CE0EEE7
:1058F000F0E0808181608083E8EDF0E080818F7747
:10590000808319BCA7EDB0E08C918E7F8C93808151
:105910008F7E80831092DF0308950F931F93CF93A0
:10592000DF930E94E22C0E94EA2CC8EDD0E088812F
:105930008F77888388818068888388818F7D88833A
:1059400019BC1092E0031092DC031092DE03109257
:10595000DD0300EE10E0F80180818B7F8083888179
:105960008160888342E060E080E00E94EF2BE1EEFE
:10597000F0E080818E7F8083E2EEF0E080818160C4
:105980008083808188608083F80180818E7F80831E
:10599000888180618883DF91CF911F910F91089555
:1059A000E8EDF0E080818F7E8083E7EDF0E080819C
:1059B0008160808384E082BF81E08093DF030E9466
:1059C0008D2C0895E8EDF0E080818E7F8083109229
:1059D000E20008951092DA001092E10008951F92FB
:1059E0000F920FB60F9211242F933F934F935F9313
:1059F0006F937F938F939F93AF93BF93EF93FF9397
:105A00008091E10082FF0BC08091E20082FF07C01D
:105A10008091E1008B7F8093E1000E944E2F809166
:105A2000DA0080FF19C08091D80080FF15C08091F6
:105A3000DA008E7F8093DA008091D90080FF96C0D3
:105A400080E189BD82E189BD09B400FEFDCF81E01E
:105A50008093E0030E942F298091E10080FF19C00C
:105A60008091E20080FF15C08091E2008E7F8093DC
:105A7000E2008091E20080618093E2008091D80092
:105A800080628093D80019BC85E08093E0030E9477
:105A900043298091E10084FF2BC08091E20084FFC4
:105AA00027C080E189BD82E189BD89B5982F9170B9
:105AB00080FFFBCF8091D8008F7D8093D8008091AC
:105AC000E1008F7E8093E1008091E2008F7E8093E1
:105AD000E2008091E20081608093E2008091DC032B
