:100000000C94ED020C940D280C940A030C940A0332
:100010000C940A030C940A030C940A030C940A032C
:100020000C940A030C940A030C943B2D0C940F2E91
:100030000C94B7260C940A030C940A030C940A033C
:100040000C940A030C940A030C940A030C940A03FC
:100050000C940A030C942F270C940A030C940A03A3
:100060000C940A030C940A030C940A030C940A03DC
:100070000C940A030C940A030C940A030C940A03CC
:100080000C940A030C940A030C940A030C940A03BC
:100090000C940A030C940A030C940A030C940A03AC
:1000A0000C940A030C940A030C940A0329001E0002
:1000B0001F002000210022004600350014001A0015
:1000C00008001500170000402B0004001600070070
:1000D00009000A00330039001D001B00060019004A
:1000E00005003400E100E000E300E20021522A00B4
:1000F0002C002D00270026002500240023000F08D7
:100100002E00130012000C0018001C0000423400E6
:1001100033000F000E000D000B00300031003800DE
:1001200037003600100011002F004F005200510020
:10013000500028004C002C0000003A003B003C001E
:100140003D003E003F000000BE00BD000378047883
:10015000BC000000000000000000000000000000E3
:10016000000000000000000000000000000000008F
:1001700000000000000000000000000000004B0034
:100180004500440043004200410040004E00A900E9
:10019000AA00A800BB00AE0000004A00000000005A
:1001A00000000000000000004D0000000000000002
:1001B000000000000000000000000000000000003F
:1001C000000000000000000000000000000000002F
:1001D000000000000000000000000000000000001F
:1001E000000000000000000000000000000000000F
:1001F00000000000000000000000000000000000FF
:100200000000000000000000000000005600550043
:10021000540053000000000000005700610060001F
:100220005F0000000000000085005E005D005C00D3
:1002300000000000000067005B005A005900000049
:100240000000000058006300620000000000000091
:100250001E0F0500047F3F1F643214643214783C83
:100260001E1E140A052223252628292A2C2D2F306C
:1002700032333536383A3B3D3E4042434547494AA2
:100280004C4E5051535557595A5C5E6062646668D3
:10029000696B6D6F71737577797B7D7F81838587DE
:1002A000898A8C8E90929496989A9C9E9FA1A3A5E1
:1002B000A7A8AAACAEAFB1B3B4B6B8B9BBBCBEBF09
:1002C000C1C2C3C5C6C7C9CACBCCCDCED0D1D2D28C
:1002D000D3D4D5D6D7D7D8D9D9DADADBDBDBDCDC97
:1002E000DCDCDCDDDDDDDDDCDCDCDCDCDBDBDBDA4F
:1002F000DAD9D9D8D7D7D6D5D4D3D2D2D1D0CECDBA
:10030000CCCBCAC9C7C6C5C3C2C1BFBEBCBBB9B8C6
:10031000B6B4B3B1AFAEACAAA8A7A5A3A19F9E9C4B
:100320009A98969492908E8C8A89878583817F7D16
:100330007B79777573716F6D6B6968666462605EF7
:100340005C5A5957555351504E4C4A4947454342C0
:10035000403E3D3B3A3836353332302F2D2C2A295A
:100360002826252322FFAA7F554000010101010113
:10037000010101010202020202020202020303035E
:10038000030303030304040404040404050505052E
:1003900005060606060607070707070808080809EE
:1003A0000909090A0A0A0B0B0B0C0C0C0D0D0D0E9A
:1003B0000E0E0F0F0F10101111111212131314142F
:1003C000151516161717181819191A1A1B1B1C1DA4
:1003D0001D1E1E1F202021222223242425262627FD
:1003E0002829292A2B2C2D2D2E2F3031323233342F
:1003F00035363738393A3B3C3D3E3F404142434435
:1004000045464748494A4C4D4E4F50515354555616
:1004100058595A5B5D5E5F616264656668696B6CC2
:100420006D6F7072737577787A7B7D7E808283853D
:1004300087888A8C8E8F91939596989A9C9EA0A27D
:10044000A3A5A7A9ABADAFB1B3B5B7BABCBEC0C287
:10045000C4C6C9CBCDCFD1D4D6D8DBDDDFE2E4E74B
:10046000E9EBEEF0F3F5F8FAFDFF0C03520065003E
:1004700064006F00780000001403460061006C0007
:1004800062006100740065006300680000000403FE
:10049000090409023B00020100A0FA09040000015E
:1004A0000301010009211101000122440007058117
:1004B00003080001090401000103000000092111E3
:1004C00001000122B600070582032000011201008D
:1004D0000200000008444D445200010102000105E1
:1004E000010902A10185020901A1000509190129DB
:1004F00008150025019508750181020501093009DB
:10050000311581257F9502750881060938158125E9
:100510007F950175088106050C0A38021581257F33
:10052000950175088106C0C005010980A1018503F8
:1005300019012AB700150126B70095017510810031
:10054000C0050C0901A101850419012AA0021501A9
:1005500026A002950175108100C005010906A101C0
:100560008506050719E029E715002501950875019D
:1005700081020507190029EF1500250195F0750185
:10058000810205081901290595057501910295015A
:1005900075039101C005010906A101050719E029AC
:1005A000E7150025019508750181029501750881FF
:1005B000010507190029FF150026FF00950675089B
:1005C000810005081901290515002501950575010A
:1005D0009102950175039101C00011241FBECFEF58
:1005E000DAE0DEBFCDBF12E0A0E0B1E0E2EAF4E67F
:1005F00002C005900D92A630B107D9F723E0A6E01E
:10060000B2E001C01D92AD3EB207E1F70E9416169E
:100610000C94C6310C9400008330B8F46A30A8F40E
:10062000473098F450E097E0699F400D511D112428
:10063000FA0196E4899FE00DF11D1124EE0FFF1FD2
:10064000E455FF4F85919491089581E090E00895DD
:100650000E940C03089581E008950E942B030895E1
:100660000E942B03089581E008950E942B030895B2
:100670000E942B0308950E94380308950895089559
:100680000E943E03089508950895A6E0B0E0EBE4CB
:10069000F3E00C94723049835A839E8330910D02AB
:1006A00089819A8131111AC03E81332399F0222326
:1006B00089F00E949A09182F682F89819A810E94D7
:1006C000760969817A81812F0E94BA102696E3E02B
:1006D0000C948E300E948809182FF3CF0E949A093B
:1006E00069817A81F1CFFC01262F4081518162819D
:1006F0007381848195810E9445030895CF93DF9390
:10070000EC0161E00E947303BE010E942D03882367
:1007100059F061E0CE010E947303BE010E943003D4
:100720008170DF91CF91089580E0FACF0F931F93EE
:10073000CF93DF93EC0160E00E9473038C01BE0154
:100740000E943F03BE01C8010E944003DF91CF9188
:100750001F910F91089521E030E0A90102C0440FDC
:10076000551F8A95E2F7CA010E9498080895CF9311
:10077000C82F81E090E00C2E02C0880F991F0A94C8
:10078000E2F70E94060E8C2F0E94AB03CF910895D2
:1007900081E008950E94C80308950E94C803089547
:1007A000CF93C82F0E944B088C2F0E94CA038C2F16
:1007B0000E94CD032FEF84E39CE0215080409040C5
:1007C000E1F700C00000CF91089581E00E94D003BE
:1007D0000E945327089580E00E94D0030E9464275E
:1007E00008950F931F93CF93DF938C0161E00E94D4
:1007F0007303EC01F801858181110E947B1EB80111
:10080000CE010E943503811106C080E0DF91CF91B7
:100810001F910F910895B801CE010E943B038823D8
:10082000A1F3B801CE010E941124882371F3B8010D
:10083000CE010E944D20882341F3B801CE010E94D1
:100840002320882311F3B801CE010E94301688239B
:10085000E1F2B801CE010E9409128823B1F2F80139
:100860008581882361F0C330FCE7DF07E9F058F4A5
:10087000C115ECE7DE07A9F0C130DC47B9F0C801CB
:100880000E943303C3CFCB358CE7D807A9F0CC3512
:10089000ECE7DE0771F0CA35DC4789F70E94E10D0D
:1008A000EECF0E94E503B1CF0E94E90D0E94EB0359
:1008B000ACCF0E94D70DE3CF0E94E50DE0CF0E94A0
:1008C00043030E9479260E94830408950E948704AE
:1008D0000E9444030E947E26089581E008950895B1
:1008E000CF93DF93D82F0E946D04C82F882319F06F
:1008F0008D2F0E946F048C2FDF91CF910895089562
:100900000E947004089580E00E94800408950E946F
:100910005A240E9480040895CF930E945A24C82F1D
:10092000809108028C1779F0C09308020E94232757
:100930006093090270930A0280930B0290930C0259
:100940008C2F0E948004CF910895ADE0B0E0EBEAD7
:10095000F4E00C947330488759876A877B878C87CB
:100960009D8791110E94E70C1F8286E0FE01389658
:10097000DE01119601900D928A95E1F78D8181112A
:100980000DC029813A814B815C816D817E818F818F
:100990000E94310C2D96E2E00C948F30CE0101962E
:1009A0000E947E038111EDCFF5CFFC01248121301F
:1009B00021F4808191810E94CC090895662329F059
:1009C0000E94AE210E94812208950E940822FACF3F
:1009D000CF93C82F8823C9F08238C9F40E946E24AF
:1009E00081FD13C089E30E9490250E947B0D2FEFAB
:1009F00087EE93E0215080409040E1F700C0000076
:100A000089E30E94AA250E947B0DCF910895833827
:100A1000A1F40E946E2480FDF8CF83E50E9490250A
:100A20000E947B0D2FEF81EE94E02150804090409A
:100A3000E1F700C0000083E5E4CF8438A1F40E9410
:100A40006E2482FDE2CF87E40E9490250E947B0DF8
:100A50002FEF81EE94E0215080409040E1F700C0FC
:100A6000000087E4CECF8CEF8C0F813A98F48C2F66
:100A70000E94501F8111C9CF8C2F0E94042588230A
:100A800029F08C2F0E94AA250E947B0D8C2F0E949A
:100A90009025B9CF80E28C0F883048F4C77081E090
:100AA00001C0880FCA95EAF70E94CA0CACCFEBE5EB
:100AB000EC0FE33040F4F0E0E857FE4F808190E027
:100AC0000E949824A2CFE8E5EC0FEB3150F4F0E05F
:100AD000EE0FFF1FEE5AFE4F808191810E94BD24D0
:100AE00094CF83E38C0F833108F08FCF61E08C2F9C
:100AF0000E94DE048ACF882309F456C0823879F434
:100B00000E946E2481FF50C089E30E9490250E94BC
:100B10007B0D89E30E94AA250E947B0D08958338EE
:100B200059F40E946E2480FF3FC083E50E94902507
:100B30000E947B0D83E5EECF843859F40E946E2429
:100B400082FF32C087E40E9490250E947B0D87E4DB
:100B5000E1CF9CEF980F913AE8F290E2980F98302D
:100B600050F4877091E001C0990F8A95EAF7892FB8
:100B70000E94D00CD1CF9BE5980F933028F490E0E1
:100B800080E00E949824089598E5980F9B3128F4FE
:100B900090E080E00E94BD24089593E3980F933184
:100BA00018F460E00E94DE0408951F93CF93DF9352
:100BB000182FEB010E94E804209739F4812F0E943E
:100BC0007B05DF91CF911F9108958FE99FE00197F9
:100BD000F1F700C000002197EFCF70E060E08933AB
:100BE00011F460E570E00E94D5050895882321F096
:100BF0000E94CA0C0E947B0D0895882321F00E9458
:100C0000D00C0E947B0D0895B0E0A0E0EAE0F6E091
:100C10000C946C306C01D62FC72FFC011581068116
:100C200002950F700E94C00CE82E8823F9F0E12E87
:100C30001123E1F08C2F807F803461F080E28D0FF2
:100C4000883008F18C2F807E803221F4D230D8F0A9
:100C50000023C9F080918F0382FF15C082E00E94BB
:100C6000AB0D0E94C00C91E0E82EE926BC2EB29498
:100C70009FE0B922FBE0FB15B8F1EB2DF0E0E85363
:100C8000FE4C0C942C30E12CF1CF0C2F0F70C07F58
:100C900011F00295007F112399F0002359F080E2B2
:100CA0008D0F883010F0D11107C0802F0E94CA0C20
:100CB0000E947B0D8D2F48C0802F0E94DA0CF8CF48
:100CC0008D2F0E947B05002379F080E28D0F883004
:100CD00010F0D11104C0802F0E94D00C03C0802FCF
:100CE0000E94E00C0E947B0DEB2DE850FF0B349727
:100CF00008F06BC10E945A240E948004CDB7DEB771
:100D0000E9E00C9488302C2F2F70F22EC07FC03277
:100D100019F0F29480EFF822DD2341F0D130C9F1CF
:100D2000112309F443C00023E9F0C4CF80918F035D
:100D300082FD14C0112359F0FF2029F08F2D0E944D
:100D4000CA0C0E947B0D80E00E94E804CDCF80E0B9
:100D50000E947B05FF2041F28F2DBECF112369F049
:100D6000011104C08F2D0E94F605BECF013009F09D
:100D7000BBCF8F2D0E94FE0CB7CF0111B5CF8F2DA9
:100D80000E94FD058F2D0E940A0D8F2D0E94EE0CF2
:100D9000ABCF112321F0063008F0A6CFE3CF05300A
:100DA00008F0A2CF8F2D0E94FD059ECF0023D1F326
:100DB000D93349F43FEF87EE93E0315080409040C3
:100DC000E1F700C000008D2F0E947B058DCF8C2F96
:100DD00086958695837069F0813009F085CF8D2FD7
:100DE0009C2F9370111102C080E090E00E94BD24FE
:100DF0007BCF8D2F9C2F9370111102C080E090E06B
:100E00000E94982471CF612F8D2F0E94DE046CCF39
:100E10008C2F8370A1F5111167CF4D2F4295469508
:100E20004770440F440F2D2F2F7030E0042E02C066
:100E3000220F331F0A94E2F790E080E0D4FF09C04C
:100E40008FE090E002C0880F991F4A95E2F78095E5
:100E50009095C695C695C370822B932BC23049F0EE
:100E600058F4C13019F00E94A4083ECF0E949B089C
:100E70003BCF0E94AD0838CF0E94980835CF8695A9
:100E8000112311F08C2F8170882309F42DCF4D2F61
:100E9000429546954770440F440F2D2F2F7030E038
:100EA000042E02C0220F331F0A94E2F790E080E084
:100EB000D4FF09C08FE090E002C0880F991F4A95C7
:100EC000E2F780959095C695C695C370822B932BBB
:100ED000C23049F058F4C13019F00E940F0904CF14
:100EE0000E94060901CF0E941809FECE0E94BC088C
:100EF000FBCECF70112329F08C2F0E94D4088D2FA8
:100F000032CF8D2F0E94FD058C2F0E94E408ECCE7D
:100F1000D23F41F160F4D03FB9F0D13F81F01123CD
:100F200009F443C00111C6CE8C2F8F711FC0D33F6F
:100F300001F1D43FA1F780918F0382FD24C08C2F53
:100F40008F71112311F312C0112341F0053008F005
:100F5000CBCE8C2F8F710E94F608C6CE063008F0DB
:100F6000C3CEF7CF8C2F8F711111CFCF0E94D40831
:100F7000BBCE112329F08C2F8F710E94C808B4CEEC
:100F80000E94C308B1CE112331F063E08C2F8F7122
:100F90000E948D0DA9CE81E00E94AB0D023008F4B5
:100FA000A3CE82E00E94AB0D9FCE002359F0D9332F
:100FB00009F009CFEFEFF7EE23E0E150F0402040D9
:100FC000E1F7FFCE8C2F8F71A0CFEE2009F496CEE3
:100FD0000E94BC0C80FD92CEF60115820E94B60CD8
:100FE0000E94D408C6010E9412080E94B60C0E94FA
:100FF000E40884CE0F931F93CF93DF93EC016881B5
:1010000079818D810E94D7098C010E9421090E945B
:101010009708B801CE010E940406DF91CF911F917D
:101020000F910895CF93DF93EC018C81882399F081
:10103000CE010E94F103811111C00E94C00C8823CF
:1010400051F08D81882339F080918F0382FF03C096
:1010500082E00E94AB0DDF91CF910895CE010E94F6
:10106000FA07CE010E949603F6CF90E080E00E943E
:10107000982490E080E00E94BD240E94E70C0E942A
:101080007B0D0E949D220E94812208950E94C4250A
:101090000E94350808950E94D70C0E9446080895C2
:1010A00092959F70963091F058F4925F9F709230B5
:1010B00058F4803F19F030F4883E30F481E0089510
:1010C0009A5FF4CF843FD1F380E00895883EB0F377
:1010D000813FD1F7F3CFFC012481222339F08081B5
:1010E00091810E94CC090E945008089580E00895E3
:1010F000A6E0B0E0EEE7F8E00C9473302696E2E06C
:101100000C948F30A7E0B0E0E8E8F8E00C9473307E
:101110002796E2E00C948F3008950E948C08089581
:101120000E948D08909335028093340208950895AB
:101130000E94900808952091340230913502822B4C
:10114000932B0E949008089520913402309135022B
:10115000822393230E9490080895209134023091B5
:101160003502822793270E94900808950E948C08D8
:1011700008950E94B60808950E94B908909333021A
:1011800080933202089590E080E00E94BC080895A8
:1011900021E030E0A90102C0440F551F8A95E2F713
:1011A000CA010E94BC08089521E030E002C0220F6D
:1011B000331F8A95E2F78091320290913302822B9D
:1011C000932B0E94BC08089521E030E002C0220F5A
:1011D000331F8A95E2F720953095809132029091E5
:1011E0003302822393230E94BC08089521E030E05B
:1011F00002C0220F331F8A95E2F78091320290914C
:101200003302822793270E94BC080895209132025E
:1012100030913302822B932B0E94BC0808952091B9
:10122000320230913302822393230E94BC08089536
:101230002091320230913302822793270E94BC080A
:1012400008950895262F277091E001C0990F2A95DF
:10125000EAF723E0769567952A95E1F7660F771F01
:10126000660F771FFA01E60FF71F50E040E0682F86
:1012700070E08191DF0111979B01042E02C0369529
:1012800027950A94E2F721702195282729232827FA
:101290002C934F5F5F4F4430510559F70895A82FA5
:1012A000A77023E0969587952A95E1F7880F991FF7
:1012B000880F991FFB01E80FF91F50E040E080E024
:1012C000219130E00A2E02C0369527950A94E2F764
:1012D00021703327042E01C0220F0A94EAF7822BD3
:1012E0004F5F5F4F4430510559F70895262F9A30CC
:1012F00070F4873060F4682F70E087E0989F600D8D
:10130000711D11244EE052E0822F0E94220908959F
:10131000292F9A3068F4873058F490E06EE072E03C
:1013200037E0239F800D911D11240E944F090895DD
:1013300080E00895B0E0A0E0E0EAF9E00C946C30C1
:101340007C0100913202109133028091340290911D
:101350003502082B192BCFE0D0E0CC24C394D12C3C
:10136000BC2EC6010C2E02C0880F991F0A94E2F70A
:1013700080239123892B49F4219790F7B12C8B2D51
:10138000CDB7DEB7E9E00C948830B7018C2F0E940E
:10139000C610019789F3F3CFCF93DF93EC010E943E
:1013A0009A09BE010E94C610DF91CF9108951F9344
:1013B000CF93DF93EB0190910D02992339F0CB018C
:1013C0000E94CC09DF91CF911F910895882369F085
:1013D000CB010E949A09182F682FCE010E9476092E
:1013E000BE01812F0E94C610EDCFCB010E9488095B
:1013F000182FF6CF1F93CF93DF93C091360217E0DB
:10140000809137028C1304C0DF91CF911F91089512
:10141000D0E01C9FF0011D9FF00D1124E85CFD4FF2
:1014200020813181428153816481758186810E944E
:1014300082082196C770E4CF20917002309171022A
:101440004091720250917302609174027091750222
:10145000809176020E9482080895CF93DF93809155
:101460007602807F09F04DC080917502882309F4CF
:1014700048C0E091360250913702C0917102D0917C
:101480007002609172027091730247E05E17C9F1B9
:101490008E2F90E0E49FF0011124E85CFD4F248141
:1014A000222391F1489FF001499FF00D1124DF01A3
:1014B000A85CBD4F11962C9111972C1325C02C912F
:1014C0002D1322C015962C91159721111DC012962F
:1014D0002D913C91261B370B283C3105A8F48091B7
:1014E00076028F70806180937602E25CFD4F80818E
:1014F0008F708061808380E792E00E9412080E94D2
:10150000FA09DF91CF910895FC013196E770BECFC3
:10151000482F209136029091370257E0291302C0DC
:1015200080E0089530E0529FF001539FF00D1124A8
:10153000E85CFD4F8181681306C08081481303C0B9
:1015400085818111EECF2F5F3F4F2770E7CFA4E158
:10155000B0E0EDEAFAE00C9469308C0186E0F80125
:10156000DE011F9601900D928A95E1F7F8018481C2
:10157000E58090E7A92E92E0B92E90917402911126
:101580001FC08823D1F0EE20A9F0C8010E946B088B
:10159000F82E882379F087E0F801D50101900D92AB
:1015A0008A95E1F7C5010E94D5040E942D0A0E9488
:1015B0001C0A5FC0C8010E941208FF24F39459C09E
:1015C000C080D18082809380F09075022091720259
:1015D00030917302A401421B530BFF2009F4F9C0A0
:1015E000483C510508F0A7C0882309F442C09091F7
:1015F000710280917602282F207F09F05CC09D1136
:1016000016C090917002C91212C0E1104EC08F70C6
:101610008061809376020E941C0A80E792E00E941B
:10162000120880917602F8018683F12C22C0E11025
:101630003CC06D2D8C2D0E94880A6D2D8C2D0E9432
:10164000880AE82E8111F1CFCF86D88A8F859889B4
:101650000E94CC09292F22952F70243078F49F7096
:101660002230A8F09923B9F0F8019681907F99F47F
:10167000FE2C8F2D6496ECE00C9485302A5F2F7041
:10168000223068F0C8010E941208EF2CF1CF992394
:1016900011F0882369F3805E883050F3F3CF803FE8
:1016A00038F3815F833070F7E3CF809176028160F9
:1016B00080937602BACF9D1113C090917002C91227
:1016C0000FC0E1100DC08683C8010E94120887E098
:1016D000F801A0E7B2E001900D928A95E1F767CF9B
:1016E000C8010E946B08882309F464CFEE2009F436
:1016F00061CF80917602803288F020917002309123
:101700007102398728879B868A86909174029C870C
:101710001D868E87CE0108960E94120887E0F80188
:10172000A0E7B2E001900D928A95E1F70E942D0AA0
:101730000E941C0A42CF90917602292F207FA1F4AB
:10174000682D9A8A898AA6017A899E2D0E94780836
:1017500080E792E00E94120887E0F50111928A95D5
:10176000E9F70E941C0A61CF882309F482CF809197
:1017700071028D1110C080917002C8120CC0E1106E
:101780000AC09683C8010E94120887E0F5011192F1
:101790008A95E9F76ECFC8010E946B08882309F487
:1017A00009CFEE2009F406CF80917602803208F44A
:1017B000B5CF20917002309171023A8329839C82C7
:1017C0008B82909174029D831E828F83CE0101963D
:1017D000A3CF483C5105B8F5882309F4EECEFE2C82
:1017E000EE2009F4E7CE809171028D111EC0809128
:1017F0007002C8121AC08091760280FD0DC0982F29
:10180000907F51F08683903F09F45ECF982F907FB0
:10181000905F8F70892B57CF87E0F801A0E7B2E087
:1018200001900D928A95E1F724CFC8010E946B08C0
:10183000811174CF80917602816080937602C80115
:101840000E94120816CF682D9A8A898AA6017A8981
:101850009E2D0E94780887E0F50111928A95E9F79C
:10186000A6CEAEE0B0E0E7E3FCE00C94723028874F
:1018700039874A875B876C877D878E87CE0108967C
:101880000E94A70A8823B1F06C85662341F0288561
:1018900039854A855B857D858E850E94820817E0A3
:1018A000809136029091370289133DC02E96E3E075
:1018B0000C948E3087E0FE013896DE01119601907F
:1018C0000D928A95E1F78C85882349F320913702A0
:1018D00030E0C90101968770992740913602481778
:1018E000190699F097E0929FD001939FB00D1124B3
:1018F000A85CBD4FFE01319601900D929A95E1F7DB
:10190000809337020E94FA09CACF0E944B081092B6
:1019100037021092360287E0E0E7F2E0DF011D9225
:101920008A95E9F7BCCF819FC0011124885C9D4F47
:101930000E94A70A882309F4B9CFE09136021E9FBE
:10194000F0011124E85CFD4F2081318142815381F7
:101950006481758186810E9482088091360290E0C0
:10196000019687709927809336029ACF80919F02C3
:10197000869586958695089580919F028770089533
:1019800090919F02977081E009F480E00895809122
:10199000CB0208959091CB02892B8093CB020895BE
:1019A00080959091CB0298239093CB02089510924A
:1019B000CB0208959091CA02892B8093CA020895A0
:1019C00080959091CA0298239093CA02089510922C
:1019D000CA02089508950E94EA0C08959091A00209
:1019E000292F282331F0809589238093A0020E941B
:1019F000EB0C089508950E94FA0C08959091A102AD
:101A0000292F2823281729F0982B9093A1020E94B0
:101A1000FB0C08959091A102292F282331F0809585
:101A200089238093A1020E94FB0C08958091A1025A
:101A3000882329F01092A10280E00E94FB0C0895F7
:101A4000CF93C091CB028091CA02C82B8091A10292
:101A5000882331F0C82B0E94E22481110E94160DC8
:101A60008C2FCF910895CF93DF93C0910601D09131
:101A700007010E94200D8883C0910601D0910701C3
:101A800048E050E067E972E0CE010E943931892BCD
:101A900059F088E0FE01A7E9B2E001900D928A9525
:101AA000E1F7CE010E947124DF91CF910895CF9389
:101AB000DF93C0910401D09105010E94200D89831C
:101AC000C0910401D091050140E250E067E772E067
:101AD000CE010E943931892B59F080E2FE01A7E73F
:101AE000B2E001900D928A95E1F7CE010E947C242C
:101AF000DF91CF9108950E945426813039F480916E
:101B00008E0387FF03C00E94570D08950E94330D76
:101B1000089508950E94890D089590918F0392FF72
:101B200011C098E0899F90011124622B60939F025D
:101B30000E94D40880919F028695869586950E9482
:101B40008A0D08950E94D408089510929F0280E0A3
:101B50000E948A0D089590919F0280958923809319
:101B60009F02282F277069F4891759F090918F03ED
:101B700092FF07C08695869586950E94E4080E948C
:101B8000A50D089590918F0392FB222720F9281725
:101B900069F080FB92F990938F0380918E0390916E
:101BA0008F030E94110E82E00E94AB0D0895809178
:101BB0008F0382FB882780F991E089270E94C20D5C
:101BC000089581E00E94C20D089580E00E94C20D38
:101BD00008956FEF7FEF90E080E00E9491310895CB
:101BE00090E080E00E945D3121E0853E9E4F09F04B
:101BF00020E0822F089582E090E00E944F31089506
:101C000083E090E00E944F3190E00895682F83E0D8
:101C100090E00E947331089584E090E00E945D316D
:101C20000895BC0184E090E00E9491310895AB01D9
:101C3000BC018FE090E00E9485310895AB01BC01AA
:101C400083E190E00E948531089560E070E0CB016F
:101C50000E941E0E089560E070E0CB010E94170EF6
:101C60000E94250E0895A8E0B0E0E9E3FEE00C94A0
:101C7000733065EE7EEF90E080E00E94913160E08D
:101C800082E090E00E94733181E090E09093350211
:101C9000809334020E94060E60E074E184E090E0DC
:101CA0000E94913160E086E090E00E94733160E034
:101CB00087E090E00E94733140E050E0BA0188E094
:101CC00090E00E94853160E083E290E00E947331F1
:101CD00060E08CE090E00E94733160E08DE090E085
:101CE0000E94733119821A821B821C821D821E82FD
:101CF0001F82188648E050E067E170E0CE0101964F
:101D00000E94633140E050E0BA018FE190E00E9410
:101D100085310E942B0E2896E2E00C948F300E94B1
:101D2000330E0895682F8EE090E00E94733108957D
:101D3000A6E0B0E0EEE9FEE00C9471300E941727B7
:101D40008C018091CC029091CD028017910781F097
:101D500019821A820E941727682F49815A81792F88
:101D600080E090E00E94A5041093CD020093CC0285
:101D70002696E4E00C948D300E94E2116093DC0220
:101D80007093DD028093DE029093DF026093D802AD
:101D90007093D9028093DA029093DB02089508953C
:101DA00008950E94CF0E089508950E94D40E0E94B7
:101DB000D10E089508950E94DA0E089508950E94A4
:101DC000DE0E0E94DB0E089581E0089587E092E127
:101DD0000E942B160E94D00E0E94D50E08950E94DC
:101DE000D01308950895089508950E94F20E0E9458
:101DF000F30E0E94F40E08950E94F00D811102C0AE
:101E00000E948F0E0E94FB0D8093E0020E940C0E38
:101E100090938F0380938E030E94DB1E0E94000E1E
:101E20000E94980880913202909133020E94B90872
:101E300008950E940E270E94BC110E94D6130E9492
:101E400027130E94FC0E0E947F040E940B200E9418
:101E5000311D0E94E8130E94DF0E0895A6E0B0E055
:101E6000E4E3FFE00C946A300E94E40E81110EC09E
:101E70000E94980E0E94D0130E947C1E0E94BF22D6
:101E80000E948C042696EBE00C9486300E944A1344
:101E90008EECA82E82E0B82E750110E0F7010191BA
:101EA0007F01812F0E9423121F5F1A3009F441C065
:101EB0000817A1F38091E00281FD0E9429120E947F
:101EC000EF0EC82E10E099249394812F0E942312C4
:101ED000082FF50181915F01081729F1F12CEE24FB
:101EE000E394D02ED8268D2D8E21A9F0CC2099F008
:101EF000F9821A830E9417279C838B839D8291E02D
:101F0000802F8E2109F490E049815A816B817C8178
:101F10008D810E94A504F394EE0CF7E0FF12E3CF4D
:101F2000F501319700831F5F1A3079F60E94BC0ECD
:101F3000A1CF0813BFCF9CCF1F93CF93DF930E94F5
:101F4000CB10EC01C11580E5D807F0F5C11580E490
:101F5000D80708F09CC0C03ED10520F5CD3CD10586
:101F600008F082C0C83AD10578F4C53AD10508F026
:101F700073C0C130D10519F1209709F1C430D105E2
:101F8000F0F4D0E0C0E01BC0C33CD105D0F7C85A84
:101F9000D0E0CC0FDD1FC557DE4F0990D881C02D92
:101FA000D4640DC0C11580E2D80708F0D1C0C115B6
:101FB00081E0D80708F05AC0C83ED10510F7CE011D
:101FC000DF91CF911F910895C03682E5D80718F5AB
:101FD000C03482E5D80708F06BC0C03282E5D8076C
:101FE00008F05FC0C11582E5D80708F497C02C2F10
:101FF0002695269580E2289F900111248C2F8370CE
:10200000C1E0D0E002C0CC0FDD1F8A95E2F7C22B01
:10201000D32BDD68D4CFC03A82E5D80760F4C0384E
:1020200082E5D80708F459C0CF71D0E0DC2FCC2767
:10203000C46FD06AC4CFC03C82E5D80708F462C040
:10204000C03E82E5D80708F09CCFDC2FCC27CC27F8
:10205000DF71C06FD06AB3CFC55AD0E0CF53DE4F27
:10206000C881D0E0D064ABCFD065A9CF8D2F0E94BE
:102070006D11182FCE0199270E94CB10C12FD0E0EF
:10208000DC2FCC27CC27DF71C82BD92B98CFCE01E2
:1020900099270E94CB10CC27DF70C82BD92BD06A90
:1020A0008ECFCF71D0E0DC2FCC27C16FD06A87CF25
:1020B0002C2F26952695277080E2289F90011124C9
:1020C0008C2F8370C1E0D0E002C0CC0FDD1F8A9559
:1020D000E2F7C22BD32BDC6872CF2C2F26952695E6
:1020E000277080E2289F900111248C2F8370C1E01B
:1020F000D0E002C0CC0FDD1F8A95E2F7C22BD32BB4
:10210000DA685DCF8C2F8F710E946D11C82FD0E0DF
:10211000DC2FCC27CC27DF71D06251CF8C2F8F7171
:102120000E946D1155E0D695C7955A95E1F7CF708D
:10213000D0E0DC2FCC27282F30E084FF05C044E01E
:10214000220F331F4A95E1F7C22BD32BD06937CF2B
:102150008D2F8F710E946D11182FCE0199270E942B
:10216000CB10C12FD0E0DC2FCC27CC27DF71C82BC0
:10217000D92BD2CF462F7A3030F4673020F4672F36
:102180000E942803089590E080E008950E94BA100C
:102190000E949C0F089582389105B9F1B0F4813303
:1021A000910509F47DC048F48932910509F46DC0A8
:1021B0008A32910509F47BC008958533910509F4AD
:1021C0005FC08933910509F10895833E9105D9F1E6
:1021D00038F4803E910529F1823E910579F1089508
:1021E000863E9105D9F1873E910509F43EC0843EB3
:1021F000910541F520918F0321FF24C080918E032A
:1022000084FD19C087EE90E0089520918E0323701D
:1022100009F05AC020918F0323FF14C089E290E097
:10222000089520918E0320FD38C030918F0330FF38
:1022300009C024FF43C090E080E0089520918E0300
:1022400022FDF7CF089520918E0322FD3AC03091F0
:102250008F0330FD39C024FFF5CFEDCF20918E03E1
:1022600023FFF0CF24FDE7CFCDCF20918E0323FDB8
:102270002EC030918F0331FFEECF84EE90E00895B1
:1022800020918E0325FFDECFC9CF20918E0325FD3F
:1022900021C020918F0323FFD5CF89E390E0D2CFD7
:1022A00020918E0326FFCECF8AE290E00895209100
:1022B0008E0326FFC7CF81E390E0089583EE90E080
:1022C000089582EE90E0089580EE90E0089586EE05
:1022D00090E0089585E390E0089590918E0392FF39
:1022E00010C041E0282F2471243009F040E031E093
:1022F000282F2871283009F030E0431711F02CE026
:10230000822793FF10C041E0282F2471243109F067
:1023100040E031E0282F2871283109F030E04317E0
:1023200011F02CE0822730918F0330FF10C051E074
:10233000282F2171213009F050E041E0282F287129
:10234000283009F040E0541711F029E0822731FFCE
:1023500010C041E0282F2171213109F040E031E027
:10236000282F2871283109F030E0431711F029E0B7
:10237000822794FD877E0895109290031092910316
:1023800010929203109293030895CF92DF92EF92EE
:10239000FF926B017C010E94D01381110EC00E943C
:1023A0002327C61AD70AE80AF90AC0929003D092E6
:1023B0009103E0929203F0929303FF90EF90DF90ED
:1023C000CF9008950F931F930E94D013882329F074
:1023D0000E9423271F910F9108950E9423270091A7
:1023E0009003109191032091920330919303600F19
:1023F000711F821F931FEECF0E94D013882319F004
:102400000E94172708950E94E211CB01089580E0F1
:102410000895CF939C01205E3245C1E02032310502
:1024200038F4FB01C581C11103C08F710E94B7034D
:102430008C2FCF91089508950E941B12089508953E
:102440000E941F120895E82FF0E0E156FC4F8081B2
:102450000895089580EA8A95F1F7089500C00895D7
:102460000E942A12089508950E9433120895A5E04B
:10247000B0E0EDE3F2E10C946F300E94D013F82E3F
:102480006091A903882309F440C085E0E82E8E01FD
:102490000F5F1F4FF8018E2D11928A95E9F7862F55
:1024A00090E0B80181569C4F0E94F6138823B9F042
:1024B0008091940390E045E050E0B80181569C4F34
:1024C0000E94393121E02093E102892B91F4F12C13
:1024D0000E9420128F2D2596E6E00C948B3080917F
:1024E000E1028823A1F3F8011192EA94E9F710922E
:1024F000E102A0919403B0E0A156BC4F85E0F80141
:1025000001900D928A95E1F7E3CF70E061567C4F20
:102510008091940390E081569C4F0E947D140E940C
:102520003412D8CFF894E82FE295EF70F0E031A1A3
:10253000282F2F7081E090E001C0880F2A95EAF7DC
:10254000982F9095932391A392A1892B82A378949D
:1025500008950F931F93CF93DF93CBECD1E0899134
:102560008F3F11F00E94921281E0C03DD807B9F769
:10257000C4ECD1E00BEC11E089918F3F11F00E9487
:1025800092120C171D07C1F7DF91CF911F910F9188
:102590000895B0E0A0E0EFECF2E10C946D30EC01B6
:1025A000D62E062F10E0C80185539E4F7C01FC01FA
:1025B00080818F3F09F444C0F894E82FE295EF70D2
:1025C000F0E091A18F7021E030E001C0220F8A95E8
:1025D000EAF7892F822B81A382A12095282322A3A9
:1025E00078940E942E12E4ECF1E031E0C12C2191AC
:1025F0002F3F59F1A22FA295AF70B0E090968C9129
:1026000090E02F7002C0959587952A95E2F780FD9E
:102610001CC0832FC82A330F81E0EB3CF80739F741
:10262000F70180818F3F11F00E94921261E0C1108A
:1026300001C060E08D2D0E943012C00FD11FC882F2
:10264000CDB7DEB7E8E00C94893080E0E3CF80912D
:1026500008018091080195E0811190E09093A90311
:1026600085E0891B809394030E94A9128AE0EFE918
:10267000F3E0DF01982F1D929A95E9F7E5E9F3E081
:10268000DF011D928A95E9F785E00E9488130E9478
:102690001C120895AAE0B0E0E0E5F3E10C9470307C
:1026A0008E010F5F1F4F8AE0F80111928A95E9F7BA
:1026B000F12C6F2DC8010E94C912F394F5E0FF12AE
:1026C000F8CF4AE050E0B80185E993E00E94393143
:1026D00021E0009709F420E0892B41F08AE0F8011D
:1026E000A5E9B3E001900D928A95E1F76091A90305
:1026F00070E061567C4F45E085E993E00E948913C4
:10270000182F0E943712812B2A96E5E00C948C300A
:102710000895B0E0A0E0EFE8F3E10C946D306C01B7
:102720007B01042FC22F222379F081E08093E40201
:102730000E9417279093E3028093E20280E0CDB7D6
:10274000DEB7E8E00C948930D091E402DD23B1F3E8
:102750008091E2029091E3020E949526059770F322
:1027600010E0A801B601C7010E943931892B31F070
:10277000A801B601C7010E944631CD2F1092E40294
:102780008C2FDDCFCF930E94BB2FC82F811102C0A9
:102790000E94B62F8C2FCF9108958091E802089562
:1027A0008091E70208950E94D01308950E94C213F9
:1027B0008093E7020E94D3138093E8020E94CD1316
:1027C000809308010E94D01381110E942C14089557
:1027D0000E94D013811102C00E942F14089581E03D
:1027E0009091E9029A3008F080E008950F931F93CA
:1027F000CF93DF93EC018B018091E9028A30B8F42A
:10280000B801CE010E947A14C82F811122C0809194
:10281000E9028F3FB9F40E9417279093E602809354
:10282000E5028C2FDF91CF911F910F910895809138
:10283000E5029091E6020E949526843F914000F7C0
:10284000C0E0EFCF8F5F8093E9028A3020F7C1E0CC
:10285000E8CF1092E902E5CF0E94C72708950E94B1
:10286000CA270895B0E0A0E0E8E3F4E10C946E30EC
:102870007901C82F880FDD0B41155105A9F0FE0124
:1028800093E0EE0FFF1F9A95E1F7E75FFE4F81811E
:10289000928186519D4F208130E04217530708F402
:1028A0009A01A9010E944631CE010E94B328D82E78
:1028B0008823D1F001151105B9F083E0CC0FDD1F9D
:1028C0008A95E1F7FE01E75FFE4F438150E0041770
:1028D000150708F4A801C75FDE4F6C817D81665142
:1028E0007D4FC7010E9446318D2DCDB7DEB7E7E0A1
:1028F0000C948A300E94A71508950E94C815089567
:10290000A4E0B0E0E6E8F4E10C94713060910C03CF
:1029100070910D0380910E0390910F030E949F26EA
:1029200011E0643671058105910518F10E94E211EC
:102930006E5F7F4F8F4F9F4F69837A838B839C831A
:1029400010E000E030E020E044E050E0BE016F5FC6
:102950007F4F82E00E943214182F882351F00E948A
:10296000232760930C0370930D0380930E039093C1
:102970000F03812F2496E4E00C948D30B0E0A0E0AA
:10298000E4ECF4E10C946B307C015B016A010E9481
:10299000EF1301E010E0882311F00AE010E0C1E03D
:1029A000D0E0B501C701F6010995811104C0219657
:1029B0000C171D072CF4CDB7DEB7EAE00C94873076
:1029C000CC9F9001CD9F300D300D112490E080E020
:1029D00045E34A95F1F70000019682179307C1F786
:1029E000E0CFABE0B0E0E7EFF4E10C947130CE0162
:1029F00001960E944E1C1B8560911003709111037B
:102A000080911203909113030E949F2664367105F2
:102A10008105910510F41123C1F010E000E030E0D1
:102A200020E04BE050E0BE016F5F7F4F83E00E94EB
:102A30003214882369F00E94232760931003709357
:102A4000110380931203909313030E944B1C81E0A7
:102A50002B96E4E00C948D30A6E0B0E0E2E3F5E1E3
:102A60000C946B307B01C090D001D090D10101E07B
:102A700010E09E012A5F3F4F50E040E070E060E0D0
:102A800080E00E943214182F882309F448C05601B0
:102A90008FEFA81AB80A609108037091090380911A
:102AA0000A0390910B030E949F26643671058105ED
:102AB000910568F105E010E09E012F5F3F4F50E067
:102AC00040E070E060E081E00E943214D82E65E0C2
:102AD00070E0C5010E940C2011E09E81981310E067
:102AE0001D2141F10E94232760930803709309037D
:102AF00080930A0390930B0385E0FE013196A3E0D7
:102B0000B3E001900D928A95E1F711E013C065E002
:102B100070E0C5010E940C209E818913CBCF85E017
:102B2000F6013196DE01119601900D928A95E1F73A
:102B30001111E2CF85E0E3E0F3E0D70101900D92BF
:102B40008A95E1F7812F2696EAE00C9487300F935F
:102B50001F93CF93DF93EC018B014CE255E10E9470
:102B6000BE14811106C080E0DF91CF911F910F91BB
:102B7000089540E854E1B801CE010E94BE148823B4
:102B800091F341EF54E1B801CE010E94BE14ECCFA5
:102B9000ABE0B0E0EEECF5E10C946D300091D001CB
:102BA0001091D101C801019625E0FB01DC010190E3
:102BB0000D922A95E1F765E070E00E940C20F80183
:102BC00080836681778180859185C090FF02D09057
:102BD0000003E0900103F09002036C157D058E0563
:102BE0009F0551F06093FF027093000380930103EF
:102BF000909302030E94C5118BE0F8013A96DE0122
:102C0000119601900D928A95E1F7F801148A8B854F
:102C1000882329F060E0CE0101960E94771D2B9653
:102C2000E8E00C9489300E942E0F08950E94B0268F
:102C30000E94722A0E94E60E0E948C2A0E94190F9E
:102C40000E94992A0E949E2A0E9413160E94B82A66
:102C50000E94F50EF7CF9093070280930602089525
:102C60000F931F93CF938C01FB01C581CC2309F4F3
:102C700047C00E94C70C8272F801E052F847EB305F
:102C8000F10538F4EC52FE4C0C942C300E94231DBC
:102C9000C0E08C2FCF911F910F910895882329F0C8
:102CA0000E94111DF5CF8823D9F30E94011DF0CF9A
:102CB000882329F00E944019EBCF8823D9F30E9482
:102CC0003119E6CF882329F00E946219E1CF8823C9
:102CD000D9F30E945119DCCF882329F00E9484196E
:102CE000D7CF8823D9F30E947319D2CF882329F034
:102CF0000E94FA17CDCF8823D9F30E94DA17C8CFE4
:102D0000C1E0C7CFEF92FF920F931F93CF93DF9352
:102D10009B01682F31110EC0442329F0E82FF0E009
:102D2000E659FC4F6491762F862FCDB7DEB7E6E0EB
:102D30000C948B30C32FD0E0E82FF0E0442321F037
:102D4000E659FC4FE491F0E046E0249FC0011124D5
:102D50000FEF10E0B8010E94E22FAB01822F90E04C
:102D6000880F991F25E5249FB001259F700D112420
:102D7000861B970B982F990F980FB8016C1B7D0B32
:102D80006E9FD0016F9FB00D7E9FB00D11248B2FD1
:102D9000939F90011124232F3327B801621B730BDB
:102DA0006E9F90016F9F300D7E9F300D1124780132
:102DB000E91AF108EC9EB001ED9E700DFC9E700DBD
:102DC0001124672F7727061B170B0E9FE0010F9F1B
:102DD000D00D1E9FD00D11247D2F9E2F4230510506
:102DE00099F048F44115510569F04130510581F0E1
:102DF0007B2F832F07C04430510569F080F04630A7
:102E00005105B1F7692F91CF9B2F8D2F7E2FFACFD0
:102E10007E2F932FF7CF9D2F7B2F8E2FF3CF732FE6
:102E20009B2FFBCF41E00E948216089508950E94D7
:102E30001217089590912C01291B922FE091FF0108
:102E4000F0910002242F462F682F892F90E00995DA
:102E50000895CF93DF93762FE901682F842F0E9486
:102E60001717962F672F9E01482F892F0E941A1738
:102E7000DF91CF9108958091AA03982F9C7F29F428
:102E8000837084608093AA0308958C3AE8F383707A
:102E9000886AF8CFB0E0A0E0E0E5F7E10C946D308F
:102EA00088E090E00E9457316B017C0183E290E062
:102EB0000E944F31282F30E040E050E060E070E0A9
:102EC00080E090E000E20E949A30B22FA32FF42F0E
:102ED000E52FD62FC72F97018601BC29A12BFE29EC
:102EE0005E2F532B2B2F3A2F4F2F6D2F7C2FCDB7CB
:102EF000DEB7E8E00C948930B0E0A0E0E2E8F7E16A
:102F00000C94693049015A016B017C010E943B1706
:102F10008401A4016A2D7B2D88E090E00E94853118
:102F200094014A2D5B2DB601C70100E20E94B53025
:102F3000622F83E290E00E947331CDB7DEB7ECE000
:102F40000C948530EAEAF3E085E0808311828FEF0C
:102F5000828383831482A6E6B3E012968C91129743
:102F6000836012968C93758125E030E04FEF5FEF20
:102F700060E0868197810E947C1708959091AE034E
:102F8000933018F49F5F9093AE03882391F02091C3
:102F9000AA033091AB034091AC035091AD03609113
:102FA000AE037091AF038091B0039091B1030E9482
:102FB0007C17089581E00E94BE1708959091AE039A
:102FC000992319F091509093AE03882391F02091AA
:102FD000AA033091AB034091AC035091AD036091D3
:102FE000AE037091AF038091B0039091B1030E9442
:102FF0007C17089581E00E94DE1708950F931F93B8
:10300000CF938091AA0380FF09C0E0910302F09161
:1030100004020995CF911F910F910895C0912E013F
:103020000091FF011091000280912F01C81768F7ED
:1030300080912C019C2F981B892F20E040E060E0BC
:1030400090E0F8010995CF5FEFCFEF92FF920F93D9
:103050001F93CF93DF93D82F162F042F8091AA03AD
:1030600080FF0CC0C0912E01E090FF01F0900002A3
:1030700080912F01C81738F00E94FE17CDB7DEB738
:10308000E6E00C948B3080912C019C2F981B892FAB
:10309000202F412F6D2F90E0F7010995CF5FE8CFEA
:1030A000762F9091AA0390FF0AC0682F842F0E9468
:1030B0001217962F672F482F892F0E9425180895E1
:1030C000CF93DF93EC01EC81F0E0EB59FD4F44919D
:1030D000EAEAF3E0628181810E9450188C818F5F5F
:1030E0008C83DF91CF910895CF93DF93EC01EAEACF
:1030F000F3E0438162818C810E9450188C818F5F44
:103100008C83DF91CF910895CF93DF93EC014091B1
:10311000AD039C81892F817090FD842F692F62708F
:1031200091FD642F92FF40E00E9425188C8190E071
:103130000196877099278C83DF91CF910895B0E035
:10314000A0E0E5EAF8E10C946E30D82F062F142F9A
:10315000E22E9091AA0390FF3FC02091AB03281369
:1031600008C08091AC03861304C08091AD0384171E
:1031700029F080916803826080936803E92FE695C7
:10318000E695AE2FB0E0AE52BE4F8C9180936603B1
:103190009C7F943031F56D2F702F812F0E94121774
:1031A000962F672F482F892F0E942518D093AB03A5
:1031B0000093AC031093AD03EE2071F02091AA03AD
:1031C0006091AE037091AF033D2FA8018091B003D1
:1031D0009091B1030E947C17CDB7DEB7E7E00C9465
:1031E0008A30823019F41091AD03E0CF863061F15E
:1031F000893051F18931D1F6E9518E2F8170D82E65
:10320000E695F0E0EB59FC4FC491F12C6091300150
:10321000F61618F00E94FE17C9CFFC9EC0011124BB
:1032200070E00E94E22F8D2FD1100CC0860F2091EC
:103230002E012F0D3327331F412F602F0E94291796
:10324000F394E4CF861BF3CFD22FB0CFEAEAF3E0BA
:103250009181282F4381628188E0890F0E949F1805
:10326000089581E00E9426190895EAEAF3E0918129
:10327000282F4381628188EF890F0E949F1808954B
:1032800081E00E9435190895EAEAF3E0628128E0BE
:10329000620F08F46FEF282F438181810E949F18ED
:1032A000089581E00E9444190895EAEAF3E06281FA
:1032B00028E0621B08F460E0282F438181810E948E
:1032C0009F18089581E00E9455190895EAEAF3E0F5
:1032D000438128E0420F08F44FEF282F628181815B
:1032E0000E949F18089581E00E9466190895EAEAF5
:1032F000F3E0438128E0421B08F440E0282F62817C
:1033000081810E949F18089581E00E947719089595
:1033100020E00E949F180895EF92FF921F93CF9391
:10332000DF93EC0110E0EE24EA94F12C609130017F
:10333000161770F00E94FE179A818C8190FF1EC0B4
:103340008F5F8C83DF91CF911F91FF90EF90089555
:1033500020912E01210F3327331F70E0C7010E94F7
:10336000F62F962F8C814091AD036091AC03199F8D
:10337000800D11240E9429171F5FD8CF8150E1CF03
:10338000B0E0A0E0E6ECF9E10C946930EC018A8150
:10339000BB24BA9480FD02C0BB24B3948C818111FC
:1033A0000AC081E0B81226C080913001815080931C
:1033B000150381E08C83A12CE090FF01F0900002C6
:1033C0009EE0992E80913001A816B8F00E94FE1759
:1033D00080911503F1E0BF1257C0811150C0809158
:1033E00030018150809315031C82CDB7DEB7ECE02D
:1033F0000C94853010921503DCCF80912E019091B2
:103400002C01891B8A0D20E040E060E090E0F7018C
:10341000099504E010E0812CCA2CD12C8091150371
:10342000880D8F3034F1692D0E94D42F892F082EFA
:10343000000C990BC816D906B1F420912E012C0D61
:103440003D2D311D8091AD03809FA001819F500DC6
:10345000112455954795559547956091AC038091FA
:10346000AB030E9429178B0C01501109B9F6A394E4
:10347000A9CF87FFDCCF90913001890FD8CF815041
:1034800080931503BC82B1CF90E00196609130012A
:1034900070E00E94F62F809315038C83A6CFEF92E5
:1034A000FF921F93CF93DF93EC018C81811109C0B0
:1034B00081E08C831092140392E090932B0180930F
:1034C0002A0110912E01E090FF01F09000028091FE
:1034D0002F01181778F110E0E090FF01F090000242
:1034E00060913001161798F10E94FE1780912A0111
:1034F00020911403280F2093140390912B01980F0F
:1035000090932B01191654F4022E000C330B4091AA
:1035100030014150550B2417350734F081958093C5
:103520002A01813009F41C82DF91CF911F91FF9015
:10353000EF90089580912C01912F981B892F20E006
:1035400040E060E090E0F70109951F5FC0CFE12FF8
:10355000F0E070E0CF010E94F62F20912E01820F43
:1035600020911403022E000C330BE217F307A4F092
:1035700020912B01022E000C330B2E173F0764F015
:10358000282F30E04091AD036091AC038091AB03F4
:103590000E9429171F5FA4CF90912C01891B20E066
:1035A00040E060E090E0F7010995F4CFB0E0A0E0E2
:1035B000ECEDFAE10C946930EC014C81042F10E041
:1035C0009801D8010E943A309B01AC010E94503012
:1035D0004B015C01E0E2F0E0E01BF10BA5E5B0E09F
:1035E000AC019B010E9450306B017C019F01DF0107
:1035F0000E9432309B01AC010E945B309B01AC0108
:10360000280D391D4A1D5B1DC701B6010E940A30F5
:10361000F22E822F90E039E23F1520F143E0249F03
:103620009001112435952795122F109500E085E51E
:10363000E82EEF1880913001081720F10E94FE1744
:103640009C8181E0992319F0903219F48FEF8093D7
:10365000290180912901890F8C83CDB7DEB7ECE079
:103660000C94853025E530E0A901481B590BCA01AF
:103670009A01220F331F280F391F37FFD3CF2F5F37
:103680003F4FD0CF8E2D01FD8F2D20912E01200F89
:103690003327331F412F6091AC030E9429170F5F1E
:1036A000C9CF0F931F93CF93DF938C01D0E0C0E07D
:1036B000909130019C171D0609F074F40E94FE17CA
:1036C000F801848190E00196817099278483DF91CD
:1036D000CF911F910F910895F801448120912E01FF
:1036E0002C0F3D2F311D6091AC038091AB0396955B
:1036F0009C171D0649F044F0442341F04091AD036E
:103700000E9429172196D4CF4423C1F340E0F8CF7B
:10371000B0E0A0E0EEE8FBE10C946530FC016280D3
:10372000448081E08483E5E6F2E07490E4EEF2E028
:10373000E491C091AD03C695C158D0E0CC0FDD1F18
:10374000CD2FDD27812C25E0922EAA24AA94B12C1E
:1037500055245A94E719EE2EF12C809130018816E9
:1037600038F00E94FE17CDB7DEB7E0E10C9481304F
:10377000C82CD12C82E0861568F09C9CF0019D9CA1
:10378000F00D1124E75EFC4F8091AB0380838091A4
:10379000AC03818341101CC09C9CF0019D9CF00DEA
:1037A0001124E75EFC4F1382128220912E012C0D12
:1037B0003D2D311D9C9CF0019D9CF00D1124E75E78
:1037C000FC4F4281618180810E9429178394C5CF7B
:1037D0009C9C80019D9C100D1124075E1C4FF801DC
:1037E00083818823F1F081508383859DC00111245A
:1037F000648170E00E94E22FFB01FF27EB59FD4F2F
:103800008491E82FE719E59DC0011124B7010E94BA
:10381000E22F8091AD03689FB0011124F8017283FB
:10382000C4CF0E941C31B5010E94F62F8C179D0752
:103830000CF0BBCFF2E0F61598F40E941C31B501F4
:103840000E94F62FF80180830E941C312091AC0366
:103850002695622F70E00E94F62F280FF801218331
:103860009C9CF0019D9CF00D1124E75EFC4F1282A0
:103870008091AD03893C58F088EC9C9CF0019D9CA4
:10388000F00D1124E75EFC4F848383838ECF843157
:10389000A0F784E1F2CF10926803089528E0EAEAE5
:1038A000F3E0DC0101900D922A95E1F72091660387
:1038B0003091670340916803FC012087318742877C
:1038C0000895E6E6F3E011828281846082830895A0
:1038D000EAEAF3E080818E7F80830E94611CE6E645
:1038E000F3E08281816082830E94FE170895EAEAF4
:1038F000F3E020812E7F20833181428153816481D6
:103900007581868197810E947C170E94611CE6E682
:10391000F3E08281816082830E94FE1708956091A6
:10392000AA036695669570E04BE050E081E391E074
:103930000E942C31892B19F481E0809367030E9447
:10394000FC119093600380935F038091680384600F
:103950008093680308959091AA0390FF39C09370F3
:10396000811137C094609093AA03809168038160AD
:1039700080936803662391F02091AA033091AB03F2
:103980004091AC035091AD036091AE037091AF03D1
:103990008091B0039091B1030E947C176091AA03BB
:1039A0006695669570E04BE050E081E391E00E94FF
:1039B0002C31892BB1F00E94611C81E0809362035D
:1039C0004091AD036091AC038091AB030E948819D4
:1039D00008958B3210F0986AC6CF880F880F982B05
:1039E000C2CF0E948F1CE9CF682F9091AA039695B1
:1039F000969581E0890F8B3208F081E00E94AB1C24
:103A0000089581E00E94F41C0895682F9091AA0304
:103A1000969596958FEF890F09F48AE20E94AB1C68
:103A2000089581E00E94051D089561E00E94AB1C8D
:103A30000895EAEAF3E08081816080838695869527
:103A40000E94151D08958091AA0380FF03C00E9463
:103A5000771C08950E94191D089560E00E94AB1C18
:103A6000089580916503811141C00E944A172093F7
:103A7000AA033093AB034093AC035093AD03609320
:103A8000AE037093AF038093B0039093B103809122
:103A900068038360809368032C7FA1F40E94A217BF
:103AA0000E944A172093AA033093AB034093AC03C0
:103AB0005093AD036093AE037093AF038093B00354
:103AC0009093B1030E943B170E94611CE091FD019D
:103AD000F091FE0109958091AA0380FF04C08695AC
:103AE00086950E942D1D81E08093650308951F93A4
:103AF000CF93DF93EC01162F8A8580FF0DC088815C
:103B000080FF25C08091AA0381608093AA038881E9
:103B1000869586950E94AB1C8A8581FF06C0212F61
:103B20004B816A8189810E949F188A8582FF05C026
:103B30008985882379F00E948F1C8A8583FF03C0C2
:103B400081E080936203DF91CF911F9108950E94DD
:103B5000681CE2CF0E94611CF0CFEF92FF920F939E
:103B60001F93CF93DF9380916703882309F464C088
:103B700080916603E091AA03E695E695E81BE09341
:103B80006103823009F05DC0F0E0EF59FD4FE49130
:103B9000CE2FD0E000E618E180916203882361F027
:103BA000109262030E94FC119093600380935F0364
:103BB00010926403109263030E94FC11E0915F0372
:103BC000F09160039C012E1B3F0B2F3F3F47A0F558
:103BD000209118032223B1F01092180320911603AC
:103BE00030911703821B930B8F3F9F4758F4205D42
:103BF0003A48309317032093160380916803886036
:103C000080936803E0906303F0906403EC0FFD1F62
:103C1000F0936003E0935F038FE593E0F80109956B
:103C20008091630390916403892B31F4E114F104D2
:103C300019F081E080931803CDB7DEB7E6E00C946D
:103C40008B30863049F4F0E0E25AFD4FE491CE2FFC
:103C5000D0E004E718E1A0CF893051F4E695F0E018
:103C6000E55AFD4FE491CE2FD0E00CE819E194CF56
:103C70008F3051F4E695F0E0E85AFD4FE491CE2FF5
:103C8000D0E000EC19E188CF853149F4F0E0EB5A3F
:103C9000FD4FE491CE2FD0E00FE41AE17DCFC8E2D2
:103CA000D0E006ED1AE1883109F476CF833239F499
:103CB000E3E5F2E0C591D49104E818E16DCFC4EFDB
:103CC000D1E001E51BE1843209F466CFC0EDD7E015
:103CD00006E117E1853209F05FCF8E2F63E00E9485
:103CE000C82FE92FF0E0E05BFD4FE491CE2FD0E04C
:103CF00008E81BE151CF08950E94AD1D0895539A25
:103D00000895FC01EE0FFF1FE80FF91FEE54FC4F62
:103D10006183408322830895E2EBF3E08183608333
:103D20004283339693E0EC3DF907C1F708953BB128
:103D3000377F2BB128604FB7F89482EB93E0FC01FA
:103D40005191CF0168E02BB9000000C057FF3BB98B
:103D5000550F000000C000C000C03BB900C06A950C
:103D600091F7F3E08C3D9F0751F74FBF8FE594E04B
:103D70000197F1F700C0000008950E94E90D089531
:103D800080E00E942312817008950E944A132FEF51
:103D900086E791E0215080409040E1F700C00000AC
:103DA0000E944A130E94C01E882321F00E94BD1E5B
:103DB0000E94532708950E94C51E0895EBEFE80F57
:103DC000EF3308F066C0F0E0E152FE4C0C942C306A
:103DD0000E948F0E81E008958091E002807F8093A1
:103DE000E00281E080936C0308950E94E503F2CF26
:103DF0009091E002892F8E7F90FF81608093E00296
:103E000080FDE8CF817F8093E002E4CF9091E002D3
:103E1000892F8D7F91FF82608093E00281FFDACF4E
:103E20008091E0028160EFCF9091E002892F8B7F3B
:103E300092FF84608093E00282FDF2CFCBCF90911D
:103E4000E002892F877F93FF88608093E00283FDE3
:103E5000E7CFC0CF0E944B0890918E03892F97FB2C
:103E600087F9805880938E03B5CF81E090E00E945F
:103E700098080E944B08AECF895321E030E0A90199
:103E800002C0440F551F8A95E2F7CA01F0CF8D5149
:103E9000F4CF80E0089580E008950E944B1F0895BC
:103EA000CF93C82F80916C038130B9F0882331F013
:103EB0008230A1F110926C0380E00DC00E94C70C0B
:103EC0008232D1F78C2F0E944B1F81111BC08C2F87
:103ED0000E94DE1E8170CF9108950E94C70C82322D
:103EE00089F38C2F0E944D1F81110AC0C43199F0B3
:103EF00060F4CB3029F0C03169F782E080936C0325
:103F000081E0E8CF81E090E0E5CFC93221F0C8330D
:103F1000B9F380E0DFCF10926C03FBCFC93209F414
:103F200040C0F0F4C431E9F1A8F481E0C73099F65B
:103F30008093430184E1809342018AE080934101B0
:103F40008EE18093400188E080933D0188E2809378
:103F50003C0104C082EE8C0F8A3070F181E0BBCF4F
:103F6000C03509F450C0B8F48AE0CF34B9F7E09115
:103F70006903F0916A03309789F32081082E000CC1
:103F8000990B820F911D8F3F910509F00CF43FC0F2
:103F90008FEF8083E3CFC135C1F181E0C23539F3C2
:103FA0009ACF80916B038823C9F210926B03109211
:103FB0006A0310926903D2CFCD51C0936B03C33013
:103FC000C9F048F4C13099F082E491E0C23051F078
:103FD00010926B03C3CFC53099F078F08CE391E079
:103FE000C630B1F790936A0380936903B7CF83E437
:103FF00091E0F8CF81E491E0F5CF80E491E0F2CF59
:104000008DE391E0EFCF86EFB2CF8FEFB0CF97FF88
:10401000C0CF1082A3CF0895FC01680F791F8FEFE6
:1040200091E3E617F70709F408952191822728E024
:1040300030E087FF06C0880F892721503109C9F772
:10404000F0CF880FFACFCF93DF93EB0186319C47F7
:1040500011F50E94C70C9D81992399F08A7A91E00D
:1040600009F490E090936D03811109C089E20E94E8
:1040700090250E947B0D80E0DF91CF91089585E32C
:10408000F6CF80916D03811104C089E20E94AA25B8
:10409000F0CF85E3FBCF81E0EFCFCF93DF93EC014F
:1040A000FB018581882309F4D2C09E013057233259
:1040B000310508F0B2C00E940C0E90938F038093DC
:1040C0008E03FE01E150F047E232F10520F4E25E9A
:1040D000FD4C0C942C3080918E03816080938E0374
:1040E00093C080918F03886080938F038DC08091EF
:1040F0008E038260F3CF80918E038460EFCF809136
:104100008E038860EBCF80918F038160EDCF80912B
:104110008F038260E9CF80918E038061DFCF809131
:104120008E038062DBCF80918E038064D7CF0E94A4
:104130004B0880918E038068D1CF80918E038C6074
:10414000CDCF80918F038360CFCF80918E038E7F00
:10415000C5CF80918F03877FC7CF80918E038D7FDE
:10416000BDCF80918E038B7FB9CF80918E03877FE7
:10417000B5CF80918F038E7FB7CF80918F038D7FD6
:10418000B3CF80918E038F7EA9CF80918E038F7DD8
:10419000A5CF80918E038F7BA1CF0E944B08809189
:1041A0008E038F779BCF80918E03837F97CF8091F3
:1041B0008F038C7F99CF80918E0382FB992790F992
:1041C00021E0922790FB82F990FB83F987CF8091C1
:1041D0008F03982F909591708E7F892B90FB81F99A
:1041E00083CF90918E03892F8F7B96FF806476CF4B
:1041F0000E944B0890918E03892F97FB87F9805876
:104200006DCF81E00E94920E80918E0390918F037A
:104210000E94110E0E944B0880E0DF91CF9108951B
:1042200080E0F0CF90918E03892F8F7E94FF806184
:1042300055CF90918E03892F8E7F90FF81604ECF56
:1042400090918F03892F877F93FF88604DCF81E006
:10425000E4CF282F35EB2303C001112497FF04C0BE
:1042600080589109892F089580589F4FFBCF8091E6
:10427000740380FF0DC06091410170E0660F771FED
:104280006038710570F56115710569F1862F089523
:1042900081FF07C06091410184E0689FB001112453
:1042A000EFCF6091410182FD0AC0809173038823A2
:1042B000A9F02091400160914101821710F088E03F
:1042C000ECCF869FC001112433E0880F991F3A95E7
:1042D000E1F7622F70E00E94F62FD2CF68E070E025
:1042E000D5CF8FE7089581E008958091740380FF12
:1042F0000CC060913D0170E0759567957595679567
:104300006115710549F1862F089581FF06C06091FE
:104310003D0170E075956795F3CF60913D0182FD99
:104320000BC0909172039923A1F060913C018091A0
:104330003D01961738F0682F70E06038710500F382
:104340008FE70895899FC001112470E00E94F62F25
:10435000F4CF61E070E0D7CF81E008958D3C31F477
:104360000E94372181958093780308958E3C19F43B
:104370000E943721F8CF8F3C31F40E94372181957C
:10438000809377030895803D19F40E943721F8CF78
:10439000893D29F40E9475218093790308958A3D0F
:1043A00021F40E9475218195F7CF8B3D31F40E9455
:1043B0007521819580937A0308958C3D19F40E94AC
:1043C0007521F8CF9FE2980F983070F4815D990BBA
:1043D00021E030E001C0220F8A95EAF78091760350
:1043E000822B8093760308958D3D31F48091740380
:1043F00081608093740308958E3D21F4809174034D
:104400008260F7CF8F3DB9F7809174038460F1CF5C
:10441000409177038D3C59F48091780387FF0DC05C
:104420001092780341110BC01092730308C08E3CA8
:1044300081F48091780318169CF3442381F08091D5
:10444000790390917A03892B09F05AC01092720374
:1044500008958F3C49F447FFF0CF10927703809185
:1044600078038111ECCFE0CF803D19F41416ACF342
:10447000E4CF90917903893D29F41916F4F610924E
:104480007903DBCF8A3D19F497FFD7CFF8CF90910E
:104490007A038B3D29F497FFD0CF10927A03CDCFCA
:1044A0008C3D19F41916CCF3C8CF9FE2980F9830C1
:1044B00090F4815D990B21E030E0B90102C0660FF4
:1044C000771F8A95E2F7CB01809590917603892337
:1044D00080937603B2CF8D3D31F4809174038E7F4B
:1044E00080937403AACF8E3D21F4809174038D7F55
:1044F000F7CF8F3D09F0A1CF809174038B7FF0CF70
:1045000008950E9417279C0190917703809178036A
:10451000982B21F0309371032093700390917903CD
:1045200080917A03982B21F030936F0320936E03D0
:1045300085E793E00E948A24089586E0E5E7F3E0AA
:10454000DF011D928A95E9F71092730310927203AE
:10455000109274030895FC01828181110EC0838141
:1045600081110BC08481811108C091E08581811186
:1045700001C090E0892F8170089581E0FCCFA6E012
:10458000B0E0E5ECF2E20C94723086E0E5E7F3E0AF
:10459000DE01119601900D928A95E1F71092770352
:1045A000109278031092790310927A038B819C8188
:1045B000892B89F080917003909171030E94952658
:1045C000AC01909173039923C9F180914201841742
:1045D000150608F440C08D819E81892B91F0809151
:1045E0006E0390916F030E949526AC019091720327
:1045F000992309F46AC080913E018417150608F4D6
:1046000072C0BE016F5F7F4F85E793E00E94DE2599
:10461000811105C085E793E00E94AB2281110E94C1
:10462000812286E0FE013196A5E7B3E001900D926C
:104630008A95E1F72696E3E00C948E3020914301B1
:104640008AE0289F900111242417350720F69F5FE8
:104650009093730302C09F3FD1F71B81112359F040
:104660000E9437219FEF11160CF491E0899F802D55
:104670001124809377031C81112359F00E94372164
:104680009FEF11160CF491E0899F802D11248093E7
:10469000780380917703882309F49DCF10917803E4
:1046A000112309F498CF0E942921882351F0809387
:1046B0007703812F0E942921882329F08093780392
:1046C0008ACF81E0F4CF81E0F9CF20913F018AE0E9
:1046D000289F900111242417350708F092CF9F5F7F
:1046E0009093720302C09F3FD1F71D81112359F0AF
:1046F0000E9475219FEF11160CF491E0899F802D87
:104700001124809379031E81112359F00E94752191
:104710009FEF11160CF491E0899F802D1124809356
:104720007A0380917903882309F46BCF10917A037F
:10473000112309F466CF0E942921882351F0809328
:104740007903812F0E942921882329F080937A03FD
:1047500058CF81E0F4CF81E0F9CF0F931F93CF932F
:10476000DF93C42FD22FFC0185818823C9F04093A9
:104770007D030E94172790937C0380937B0380E244
:104780008C0F883040F4C77081E001C0880FCA9553
:10479000EAF70E94F605DF91CF911F910F910895DE
:1047A00010917D03141332C080917B0390917C03A0
:1047B0000E949526883C910548F5C0E2CD0F1D1753
:1047C000B9F080E2810F883040F4177081E001C0B9
:1047D000880F1A95EAF70E94FD05C83048F481E079
:1047E0009D2F977001C0880F9A95EAF70E94F605F1
:1047F000802F0E94ED05C83070F6D77081E001C0AF
:10480000880FDA95EAF70E94FD05C5CF80E28C0F8C
:10481000883008F6C77081E001C0880FCA95EAF7B2
:10482000F2CF0F93DB0188519C4787309105A0F5AB
:10483000FC01E05CFD4C0C942C3006E221EE41EED4
:104840006AE17CE7CD010E94AD2380E00F910895DD
:1048500007E225EE45EE6BE17CE7F4CF06E221EEC0
:1048600040EE68E17CE7EECF07E225EE44EE69E139
:104870007CE7E8CF06E221EE42EE6CE17CE7E2CF96
:1048800007E225EE46EE6DE17CE7DCCF08E221E0B1
:1048900045EE6EE17CE7D6CF15968C91882319F012
:1048A00010927D03D3CF81E0D1CF90938403809386
:1048B000830308950E94D013811103C080917E0369
:1048C0000895E0918303F0918403309729F00190DB
:1048D000F081E02D0995089580E008950E945A2402
:1048E0000895E0918303F0918403309721F00280D2
:1048F000F381E02D09950895E0918303F0918403FD
:10490000309739F026E0DC012C930480F581E02D0E
:1049100009950895E0918303F0918403309739F06D
:1049200022E0DC012C930680F781E02D09950895A3
:10493000A3E0B0E0EEE9F4E20C947330209181033F
:104940003091820328173907A1F090938203809356
:104950008103E0918303F0918403309751F023E0C9
:1049600029839B838A830084F185E02DCE01019603
:1049700009952396E2E00C948F30A3E0B0E0E3ECDD
:10498000F4E20C94733020917F0330918003281758
:104990003907A1F09093800380937F03E091830314
:1049A000F0918403309751F024E029839B838A831C
:1049B0000084F185E02DCE01019609952396E2E071
:1049C0000C948F30CF93DF93C0910601D0910701F3
:1049D00022960E945426813081F480918E0387FFB5
:1049E0000CC0C0910401D091050122969EE180E0A7
:1049F000915028F4DF91CF91089596E0F8CF299156
:104A00002223B1F38F5FF4CFCF93C82F811102C05F
:104A100080E024C00E945426813011F580918E03DD
:104A200087FF1EC0EC2FE695E695E695EE3180F700
:104A30008091040190910501E80FF92FF11D228169
:104A400030E0C77081E090E002C0880F991FCA95DE
:104A5000E2F72823392381E0232BD1F2CF91089567
:104A60008091060190910701FC01329608962191F0
:104A70002C1721F0E817F907D1F7CACF81E0EECF64
:104A80009C01FC0132969FEF80E04191461751F066
:104A90009F3F19F4411101C0982F8F5F8630A9F70D
:104AA0009F3F09F40895290F311D97FD3A95F901AB
:104AB00062830895FC01329608962191261303C063
:104AC000DF0111971C92E817F907B9F70895E62F4F
:104AD000E695E695E695EE3168F4E80FF92FF11DBD
:104AE000677021E030E001C0220F6A95EAF7828109
:104AF000822B82830895E62FE695E695E695EE31C2
:104B000070F4E80FF92FF11D677021E030E001C06B
:104B1000220F6A95EAF7209582812823228308953F
:104B2000CF93C82F0E9454266C2F813061F480915E
:104B30008E0387FF08C080910401909105010E94B7
:104B40006725CF91089580910601909107010E94F9
:104B50004025F7CFCF93C82F0E9454266C2F813069
:104B600061F480918E0387FF08C0809104019091C9
:104B700005010E947B25CF910895809106019091B7
:104B800007010E945A25F7CF0E945426813079F4FC
:104B900080918E0387FF0BC0E0910401F091050125
:104BA00032968EE1DF011D928A95E9F70895E09132
:104BB0000601F0910701329686E0F4CFDC01FB019B
:104BC00011969C9111978181981322C012968C9115
:104BD0001297882319F0928189131AC013968C9129
:104BE0001397882319F09381891312C015968C911D
:104BF0001597882319F0958189130AC014969C9102
:104C0000992321F081E02481291303C080E001C0B1
:104C100081E08170089508950E940B260895811106
:104C20000EC081E08093470160914401709145017D
:104C300080914601909147010E940C26089582E0E0
:104C4000F1CF83E080934701609144017091450169
:104C500080914601909147010E940C2608950E9480
:104C60000F26089581E0809347016091440170917F
:104C7000450180914601909147010E940C260895BC
:104C80000E943226089591E0811101C090E0909336
:104C900046016091440170914501809146019091D7
:104CA00047010E940C260895809146010895809343
:104CB00045016091440170914501809146019091B8
:104CC00047010E940C260895809145010895809324
:104CD0004401609144017091450180914601909199
:104CE00047010E940C26089580914401089508957B
:104CF00008950E9478260895089508950E947726C1
:104D00000895CF930E947C260E944A130E947D261C
:104D1000C0E08C2F0E942312811105C0CF5FCA30E2
:104D2000C1F7CF91089581E0FCCFCF93DF93EC01E1
:104D30000E9417278C1B9D0BDF91CF910895CF9276
:104D4000DF92EF92FF926B017C010E9423276C1986
:104D50007D098E099F09FF90EF90DF90CF90089515
:104D600085B7806885BF85B7806885BF08951F9225
:104D70001FB61F9211248F939F93AF93BF9380917F
:104D80008503811113C08091DC039091DD03A09114
:104D9000DE03B091DF034196A11DB11D8093DC03BA
:104DA0009093DD03A093DE03B093DF03BF91AF9137
:104DB0009F918F911F901FBE1F9018958091E403C3
:104DC000843031F10E945F041092850388E190E005
:104DD00020E40FB6F894A895809360000FBE20934E
:104DE000600083B7817F846083BF83B7816083BFA6
:104DF0007894889583B78E7F83BF0FB6F894A89573
:104E000080916000886180936000109260000FBE06
:104E100008950E944B080E946604089582E084BDB4
:104E200093E095BD9AEF97BD80936E0008952FB7DC
:104E3000F8948091DC039091DD03A091DE03B091A2
:104E4000DF032FBF08952FB7F8946091DC037091B2
:104E5000DD038091DE039091DF032FBF08957894E6
:104E60001F921FB61F9211248F939F93AF93BF93EE
:104E70008091DC039091DD03A091DE03B091DF030C
:104E80000196A11DB11D8093DC039093DD03A093D7
:104E9000DE03B093DF03BF91AF919F918F911F907D
:104EA0001FBE1F90189587E797E79093010880939E
:104EB000000888E19AE00FB6F894A8958093600006
:104EC0000FBE90936000FFCF88E19AE00FB6F89490
:104ED000A895809360000FBE90936000FFCF8EE195
:104EE000489B02C08150E1F7489BFECF0895589837
:104EF00080E28A95F1F7589A0895FC013BE03A95D3
:104F0000F1F798E020E080E031E040E14A95F1F7E8
:104F1000880F489B02C08160232742E04A95F1F741
:104F2000000040E14A95F1F7915079F790E19A95A8
:104F3000F1F799B132E03A95F1F7000040E14A9576
:104F4000F1F7917092272081920F90830895A1E04C
:104F5000B0E0EDEAF7E20C946F3019828C017C012D
:104F6000E60EF11C0E151F0541F481E099819111A7
:104F700080E02196E6E00C948B300E946F27CE01F2
:104F800001960E947D27F80181938F01EBCF509A03
:104F9000589A08955098589AE89AE9E6F0E0808186
:104FA0008C7F808308956150770B91E001C0990F49
:104FB0006A95EAF720E031E0911108C0222391F0D0
:104FC000589A80E28A95F1F758980895492F482316
:104FD00039F0589A232740E24A95F1F79695ECCF9D
:104FE0005898F9CF5898EDCFFF920F931F93CF9316
:104FF000DF93EC018C01060F111DC017D10729F4B6
:10500000CDB7DEB7E5E00C948C30F9900E9477279D
:1050100068E08F2D0E94D327F0CF1F920F920FB61A
:105020000F9211240F931F932F933F934F935F93EE
:105030006F937F938F939F93AF93BF93EF93FF9360
:10504000CF93DF930F92CDB7DEB719820E946F27FF
:10505000CE0101960E947D27082F0695069506959C
:10506000282F22952570902F9570290F922F9370DD
:1050700026952695920F982797708981982B09F08D
:105080005CC0053008F059C080E18A95F1F7589A64
:10509000509A82E08A95F1F700C0589888E0089FFE
:1050A00080011124D801A75FBE4F1696ED91FC91A7
:1050B00017973097A9F06091D0017091D1011496A3
:1050C0002D913C911597260F371F11968D919C912C
:1050D0001297680F791F13964C9113978C9109952D
:1050E000F801E75FFE4F6381662351F02091D00104
:1050F0003091D10184819581820F931F0E94F42702
:105100000E94772780E18A95F1F758985098589A2D
:1051100080E18A95F1F7F801E75FFE4F6081662331
:1051200051F02091D0013091D10181819281820F83
:10513000931F0E94A7270E946F270F90DF91CF91A6
:10514000FF91EF91BF91AF919F918F917F916F915F
:105150005F914F913F912F911F910F910F900FBE33
:105160000F901F9018950F931F93CF93DF93EC012F
:1051700005970CF04CC0F894509A589885E08A95A1
:10518000F1F700009C2F969595708C2F8570980FE5
:10519000892F83709695969523E0CC0FDD1F2A9575
:1051A000E1F7980F8E01092B0E94772700C068E075
:1051B000802F0E94D32780E18A95F1F75098589A62
:1051C000489B1EC087E090E048991CC0FE01E75F45
:1051D000FE4F63816623F9F02091D0013091D10117
:1051E00084819581820F931F0E94A727811113C08C
:1051F000509A589A7894DF91CF911F910F9108950A
:1052000000C0DECF019729F4509A589A789480E034
:10521000F2CF00C0D9CF0E946F2780E28A95F1F7C4
:105220005898509A80E18A95F1F7C75FDE4F688100
:10523000662351F02091D0013091D10189819A816A
:10524000820F931F0E94F4270E947727789481E0B1
:10525000D2CF9B01BA019091E4039430E9F48F70AE
:105260008093E9009FEF8091E800915085FD06C092
:1052700085ED8A95F1F700009111F5CF8091E80056
:1052800085FF0AC050E040E0C9010E942F2B8091A9
:10529000E8008E778093E800089543E050E0BC0179
:1052A00082E00E942929089546E050E0BC0182E096
:1052B0000E942929089540E250E0BC0182E00E944A
:1052C00029290895CF93DF93EC010E94542648E0EA
:1052D00050E0BE0181E00E94292988E0FE01A6E895
:1052E000B3E001900D928A95E1F7DF91CF91089597
:1052F0008091E303811109C00E94BF2C0E941C2DE4
:105300008091E20084608093E20008951092E303AC
:1053100008950E94322681E00E94432608956091FC
:10532000E00381E0611101C080E00E942126089520
:105330009091E40381E0943009F080E06091E00313
:105340000E942F26089542E061EC81E00E943B2CF0
:1053500042E261EC82E00E943B2C9091E40381E008
:10536000943009F080E06091E0030E940F260895D8
:105370008091E603833009F461C030F48130D1F1CB
:10538000823009F49EC008958A3009F48AC08B30B7
:1053900009F46FC0893009F050C08091E503813273
:1053A00009F04BC08091E9039091EA03029708F05D
:1053B00044C08091E800877F8093E8008091E800F6
:1053C00082FF37C09091F3008091F200029731F490
:1053D0008091F100813011F0863021F48091F1004C
:1053E0000E9457268091E8008B778093E8000E9406
:1053F0006F2C23C08091E503813AF9F48091E80095
:10540000877F8093E8008091E9039091EA03892BDC
:1054100061F468E086E893E070E00E947E2B809162
:10542000E8008B778093E800089560E090E080E0EA
:10543000F3CF8091E4038111C1CF08958091E503FA
:10544000813AD9F78091E9039091EA03892BA9F772
:105450008091E800877F8093E8008091E80080FFDA
:10546000FCCF0E9454268093F1008091E8008E7753
:10547000BCCF8091E503813201F78091E9039091DF
:10548000EA03892BD1F68091E800877F8093E800BA
:105490000E946F2C8091E7030E9443260E944B08D4
:1054A00008958091E503813241F68091E800877F7D
:1054B0008093E8000E946F2C8091E8030E94672689
:1054C00008958091E503813A09F0B7CF8091E80013
:1054D000877F8093E8008091E80080FFFCCF0E94E6
:1054E0007426C1CF84B7877F84BF0FB6F894A89580
:1054F00080916000886180936000109260000FBE10
:1055000080E890E00FB6F89480936100909361007A
:105510000FBE0E94402608950E94BF2C0E941C2DA1
:10552000E2EEF0E080818460808378940E949B2F7B
:10553000089588E491E00E94552408958091E40341
:10554000853031F48091E403853019F00E940927F9
:1055500008950E94DE260E948126882399F3809177
:10556000E203882379F30E94192B0E944B08EACFAB
:1055700008959A014091EB035091EC030E94C12AD7
:105580000895492F55274330510519F168F44130EA
:10559000510509F444C04230510509F445C090E07A
:1055A00080E050E040E025C04132510549F14232EF
:1055B0005105A9F784E490E045E955E061157105CE
:1055C000C1F086EB90E04FED54E06130710589F059
:1055D000E6CF99278130910581F0009729F0029755
:1055E000F1F6EAE6F4E002C0EEE8F4E0849190E03F
:1055F000AF01F901518340830895E8E7F4E0F6CF65
:1056000089E090E044EA54E06115710591F389E086
:1056100090E04DEB54E06130710559F3C0CF82E169
:1056200090E04DEC54E0E5CF8BE390E042E954E0AC
:10563000E0CF80E189BD82E189BD09B400FEFDCFE4
:105640008091D8008F7D8093D8008091E0008260A7
:105650008093E0008091E00081FDFCCF0895AF923F
:10566000BF92CF92DF92FF920F931F93CF93DF935E
:105670006C01EB018A010E948E2CF82E811123C04F
:105680000115110539F0F80180819181C81BD90BF2
:10569000C80ED91EB12CA12C2097A9F08091E8004A
:1056A00085FD22C08091E8008E778093E800011587
:1056B0001105A1F0F80180819181A80EB91EB18277
:1056C000A08285E0F82E8F2DDF91CF911F910F9151
:1056D000FF90DF90CF90BF90AF9008950E948E2CE6
:1056E0008823D1F2F82EEFCFF60181916F018093DC
:1056F000F1002197FFEFAF1ABF0ACECFFC018091D6
:10570000EB039091EC0386179707A0F061157105E4
:1057100029F49091E8009E779093E80090E061155D
:10572000710551F4911108C08091E80082FF34C0E6
:1057300080E00895BC01F2CF8091E4038823C1F199
:105740008530C1F18091E80083FD30C08091E80090
:1057500082FDEACF8091E80080FFE1CF8091F300E5
:105760002091F200382F6115710519F028303105AC
:1057700058F091E02830310509F090E02091E800E0
:105780002E772093E800CBCF81918093F100615078
:1057900071092F5F3F4FE7CF8091E403882341F0E9
:1057A000853041F08091E80083FFBECF81E008950D
:1057B00082E0089583E00895FC018091EB039091CD
:1057C000EC0386179707A0F06115710529F4809105
:1057D000E8008E778093E80090E06115710551F440
:1057E000911108C08091E80082FF35C080E00895E3
:1057F000BC01F2CF8091E4038823C9F18530C9F15F
:105800008091E80083FD31C08091E80082FDEACFFD
:105810008091E80080FFE1CF8091F3002091F200B9
:10582000382F6115710519F02830310558F091E0D5
:105830002830310509F090E08091E8008E77809360
:10584000E800CBCF84918093F100319661507109CB
:105850002F5F3F4FE6CF8091E403882341F08530EE
:1058600041F08091E80083FFBDCF81E0089582E0A0
:10587000089583E00895982F973028F08F708093D3
:10588000E90081E008959093E900242F762F50E0FD
:10589000981731F07091EC002091ED005091F000DC
:1058A00021FD02C09F5FE8CF3091EB003E7F309337
:1058B000EB003091ED003D7F3093ED003091EB0037
:1058C00031603093EB007093EC002093ED00509327
:1058D000F0002091EE0027FDE5CF80E00895809153
:1058E000E50387FF13C08091E80082FF06C0809126
:1058F000E8008B778093E80004C08091E403811175
:10590000F2CF08958091E4038823D9F38091E800D1
:1059100080FFF8CF8091E8008E77ECCF2091E400F3
:105920003091E50095E6A9012091EC00822F81706D
:1059300020FF06C08091E80080FF06C080E0089547
:105940002091E80022FD1AC08091E403882389F0A9
:10595000853089F08091EB0085FD0FC02091E40037
:105960003091E50042175307F9F29150E1F684E0D7
:10597000089582E0089583E0089581E008950E94EB
:105980002E2D0E94362DE0EEF0E080818160808334
:10599000E8EDF0E080818F77808319BCA7EDB0E05F
:1059A0008C918E7F8C9380818F7E80831092E30315
:1059B00008950F931F93CF93DF930E942E2D0E9483
:1059C000362DC8EDD0E088818F7788838881806804
:1059D000888388818F7D888319BC1092E40310929C
:1059E000E0031092E2031092E10300EE10E0F801F0
:1059F00080818B7F808388818160888342E060E042
:105A000080E00E943B2CE1EEF0E080818E7F80837D
:105A1000E2EEF0E080818160808380818860808315
:105A2000F80180818E7F8083888180618883DF9107
:105A3000CF911F910F910895E8EDF0E080818F7E66
:105A40008083E7EDF0E080818160808384E082BF25
:105A500081E08093E3030E94D92C0895E8EDF0E003
:105A600080818E7F80831092E20008951092DA0088
:105A70001092E10008951F920F920FB60F92112419
:105A80002F933F934F935F936F937F938F939F9346
:105A9000AF93BF93EF93FF938091E10082FF0BC020
:105AA0008091E20082FF07C08091E1008B7F8093AC
:105AB000E1000E949A2F8091DA0080FF19C0809146
:105AC000D80080FF15C08091DA008E7F8093DA00C5
:105AD0008091D90080FF96C080E189BD82E189BDB7
